:100000004EC0000069C0000067C0000065C000006D
:1000100063C0000061C000005FC000005DC0000060
:100020005BC0000084C1000059C100004DC1000048
:100030002DC1000035C100001FC10000F6C0000046
:100040004BC0000049C000004CC0000045C000008B
:1000500071C0000041C000003FC000003DC0000072
:1000600029C10000B5C1000095C100009DC100007C
:10007000A5C1000085C1000086C000002DC00000A1
:10008000ABC0000029C0000027C000001B032403F0
:100090002D033103350346034A035A036E0311242B
:1000A0001FBECFEFD0E1DEBFCDBF11E0A0E0B1E0D9
:1000B000EEEBFCE000E00BBF02C007900D92A23611
:1000C000B107D9F725E0A2E6B1E001C01D92A8353D
:1000D000B207E1F7A8D5F1C593CF7894089564D21B
:1000E000FECF1F920F920FB60F9211240BB60F92F4
:1000F0002F933F934F935F936F937F938F939F9330
:10010000AF93BF93EF93FF9386E295E077D5FF918E
:10011000EF91BF91AF919F918F917F916F915F917F
:100120004F913F912F910F900BBE0F900FBE0F90EC
:100130001F9018951F920F920FB60F9211240BB6B5
:100140000F922F933F934F935F936F937F938F9370
:100150009F93AF93BF93EF93FF9386E295E04CD5C7
:10016000FF91EF91BF91AF919F918F917F916F918F
:100170005F914F913F912F910F900BBE0F900FBE4B
:100180000F901F9018951F920F920FB60F92112487
:100190000BB60F922F933F934F935F936F937F9381
:1001A0008F939F93AF93BF93EF93FF938DE395E06E
:1001B00025D5FF91EF91BF91AF919F918F917F9145
:1001C0006F915F914F913F912F910F900BBE0F90C8
:1001D0000FBE0F901F9018951F920F920FB60F929F
:1001E00011240BB60F922F933F934F935F936F930E
:1001F0007F938F939F93AF93BF93EF93FF938DE381
:1002000095E0FAD4FF91EF91BF91AF919F918F91BB
:100210007F916F915F914F913F912F910F900BBE06
:100220000F900FBE0F901F9018951F920F920FB650
:100230000F9211240BB60F922F933F934F935F931E
:100240006F937F938F939F93AF93BF93EF93FF939E
:1002500006D4FF91EF91BF91AF919F918F917F91C4
:100260006F915F914F913F912F910F900BBE0F9027
:100270000FBE0F901F9018951F920F920FB60F92FE
:1002800011240F900FBE0F901F9018951F920F9280
:100290000FB60F9211240F900FBE0F901F9018955C
:1002A0001F920F920FB60F9211240F900FBE0F9056
:1002B0001F9018951F920F920FB60F9211240F9056
:1002C0000FBE0F901F9018951F920F920FB60F92AE
:1002D00011240F900FBE0F901F9018951F920F9230
:1002E0000FB60F9211240BB60F922F933F934F939B
:1002F0005F936F937F938F939F93AF93BF93EF938E
:10030000FF9386EF91E007D4FF91EF91BF91AF91FA
:100310009F918F917F916F915F914F913F912F911D
:100320000F900BBE0F900FBE0F901F9018951F924D
:100330000F920FB60F9211240BB60F922F933F938B
:100340004F935F936F937F938F939F93AF93BF93DD
:10035000EF93FF9386EF91E0E1D3FF91EF91BF918F
:10036000AF919F918F917F916F915F914F913F914D
:100370002F910F900BBE0F900FBE0F901F901895EE
:100380001F920F920FB60F9211240F900FBE0F9075
:100390001F9018951F920F920FB60F9211240F9075
:1003A0000FBE0F901F9018951F920F920FB60F92CD
:1003B00011240F900FBE0F901F9018951F920F924F
:1003C0000FB60F9211240F900FBE0F901F9018952B
:1003D0001F920F920FB60F9211240F900FBE0F9025
:1003E0001F9018953AC3089551C308954F925F9294
:1003F0006F927F92AF92BF92CF92DF92EF92FF9275
:100400000F931F93CF93DF9300D000D000D0CDB7D0
:10041000DEB79E838D83062F172F29013A01232BE8
:10042000242B252B09F470C0DC018D919D910D903A
:10043000BC91A02D89839A83AB83BC83BC01CD0181
:100440006F5F7F4F8F4F9F4FED81FE8120853185FC
:1004500042855385EED36B017C01ED81FE81848161
:100460009581A681B781C816D906EA06FB0609F46C
:100470004BC0A02EB12E00E010E023C0C701B60192
:100480006F5F7F4F8F4F9F4FAD81BE8118962D912B
:100490003D914D915C911B97CCD3BFEFAB1ABB0A3A
:1004A000C982DA82EB82FC82ED81FE81C480D58034
:1004B000E680F7806C157D058E059F0529F16B019F
:1004C0007C01AD81BE811C968D919C911D970097FA
:1004D00039F0F5012081E981FA81E80FF91F2083C5
:1004E000AD81BE81CD92DD92ED92FC9213970F5FAC
:1004F0001F4FC801012E000CAA0BBB0B84159505DC
:10050000A605B70508F4BACF80E026960FB6F89492
:10051000DEBF0FBECDBFDF91CF911F910F91FF9036
:10052000EF90DF90CF90BF90AF907F906F905F90F3
:100530004F900895CF93DF9300D0CDB7DEB71A82E6
:1005400019828630B8F4613011F491E09A8390E01A
:10055000FC01EE0FFF1FEE0FFF1FE80FF91FE05029
:10056000FF4F81818983BE016F5F7F4F808197D26A
:1005700081E001C080E00F900F90DF91CF9108954E
:100580000F931F93CF9300E011E0C0E0F801628168
:100590008C2FD0DF0B5F1F4FCF5FC630B9F781E0E4
:1005A000CF911F910F91089582E092E00ED08823A1
:1005B00059F06091140266233CF04091150250916D
:1005C000160282E092E0D5C00895CF92DF92EF92BA
:1005D000FF920F931F93CF93DF93FC0110811123A0
:1005E00009F4BDC0EC01E55EFD4F0190F081E02D06
:1005F00089810995672B682B692B09F499C0FE0145
:10060000E15EFD4F0190F081E02D89810995082F71
:10061000EBDEC884D984EA84FB84DC01CB018C192D
:100620009D09AE09BF0984369105A105B10508F4FD
:1006300083C01E8281C00F3F29F48FEF8E8B81E033
:100640008E8389C01E8287C00F3F29F48FEF8F8B66
:1006500082E08E8380C01E827EC0088F83E08E83FE
:100660007AC0098F84E08E8376C00A8F988D898D39
:10067000890F8095888B081303C085E08E8301C0A5
:100680001E82892F90E09F878E8765C00B8F86E042
:100690008E8361C00C8F87E08F83CE014D969C8B3B
:1006A0008B8B8E859F85892B19F087E08E8353C0B5
:1006B0001E8239C09F8181E0890F8F83FE01E90F7F
:1006C000F11D068B90E02E853F85295F3F4F8217F5
:1006D000930708F440C088E08E833DC08F81FE01FF
:1006E000E80FF11D068B4E855F854115510591F090
:1006F000FE017D96435E5F4F4C0F5D1F80E090E0F2
:10070000DC012191820F911DA11DB11D4E175F07C4
:10071000C1F703C080E090E0DC0180958D8B081369
:100720001CC01E821F828C8D898B8B8D8A8B17C07B
:1007300010E015C010E013C057DE688779878A87FC
:100740009B87EE818E2F90E08930910598F7FC0110
:10075000EA5BFF4F90C210E002C01F8210E0812FC1
:10076000DF91CF911F910F91FF90EF90DF90CF908D
:10077000089566236CF0FC0170E0660F771FE60FAA
:10078000F71FED5DFD4F0190F081E02DCA01099545
:10079000089581E008950895FC018081882319F06F
:1007A000813059F008952089318940E050E0648516
:1007B000758582E691E01ACE08952089318940E05E
:1007C00050E06485758580E791E010CE08950ADEDB
:1007D000D7DEDFCF0895CF92DF92EF92FF9287B7F7
:1007E000826087BF87B7806487BFA0911E01B0E099
:1007F00020E034E244EF50E047D26B017C0120ED71
:1008000037E040E050E015D2DA01C901877099273E
:10081000AA27BB27892B8A2B8B2B09F475C0DA01F9
:10082000C9018F719927AA27BB27892B8A2B8B2B6C
:1008300009F47EC0DA01C9018F739927AA27BB2763
:10084000892B8A2B8B2B09F487C0DA01C9018F779A
:100850009927AA27BB27892B8A2B8B2B09F490C0B9
:10086000222309F4A1C0DA01C9019370AA27BB278A
:10087000892B8A2B8B2B09F4ABC0BEC083B7816058
:1008800083BF83B78D7F83BF83B78B7F83BFDDC07B
:1008900083B78E7F83BF83B7826083BF83B78B7F2D
:1008A00083BFD3C083B7816083BF83B7826083BFB8
:1008B00083B78B7F83BFC9C083B78E7F83BF83B766
:1008C0008D7F83BF83B7846083BFBFC083B78160E0
:1008D00083BF83B78D7F83BF83B7846083BFB5C079
:1008E00083B78E7F83BF83B7826083BF83B7846003
:1008F00083BFABC083B7816083BF83B7826083BF90
:1009000083B7846083BFA1C0C701B60120E83EE37E
:1009100040E050E08ED1BA01A9014150510961096E
:1009200071094F3F51056105710508F482C0B0CFD0
:10093000C701B60120E03AEF40E050E07AD1BA01B9
:10094000A90141505109610971094F3F51056105E4
:10095000710508F472C0A6CFC701B60120E034EFDC
:1009600041E050E066D1BA01A90141505109610945
:1009700071094F3F51056105710508F09DCF61C0B8
:10098000C701B60120E038EE43E050E052D1BA0191
:10099000A90141505109610971094F3F5105610594
:1009A000710508F093CF35C0C701B60120E030EDE6
:1009B00047E050E03ED1BA01A90141505109610917
:1009C00071094F3F51056105710508F089CF25C0B8
:1009D000C701B60120E030E44FE150E02AD1BA016E
:1009E000A90141505109610971094F3F5105610544
:1009F000710508F07FCF15C0BA01A9014150510916
:100A0000610971094F3F51056105710508F036CF45
:100A10000CC081E080931E0159CF81E080931E01BC
:100A20005FCF81E080931E0165CF81E080931E013E
:100A300025CF81E080931E012BCF81E080931E01A2
:100A400031CF81E080931E0137CF41BF789480E0A1
:100A5000FF90EF90DF90CF900895BDCE08958091E4
:100A6000540590915505A0915605B09157052091D8
:100A70001E01820F911DA11DB11D809354059093FD
:100A80005505A0935605B0935705089560915405F8
:100A9000709155058091560590915705089590E005
:100AA000DB0111962C911197211119C0FC01EE0F59
:100AB000FF1FE80FF91FEE0FFF1FE15EFE4F0190D1
:100AC000F081E02D208181E090E00C9002C0880F41
:100AD000991F0A94E2F7809582238083089521303C
:100AE000C1F4FC01EE0FFF1FE80FF91FEE0FFF1F0F
:100AF000E15EFE4F0190F081E02D208181E090E0E9
:100B0000DB010C9002C0880F991F0A94E2F7822B38
:100B1000808308950895FECF08950895FECF089527
:100B2000AF92BF92CF92DF92EF92FF920F931F93FB
:100B3000CF93DF938C01EC01888190E01E8A598B62
:100B4000488B5D8B4C8B2D81243041F42F812111FA
:100B500008C0E62EF72E60E070E005C0E12CF12C15
:100B600002C0E12CF12C452BD9F1A62EB72ED701CE
:100B700040E050E0BC01660F771F680F791F660FD9
:100B8000771F660F771F675B7E4F6B01D2E0CD0E3C
:100B9000D11CE601E881F981908199231CF49081B0
:100BA00095FFFACFE114F10439F4EB01E881F98102
:100BB0008081F501808308C0EB01E881F981208103
:100BC00030E011963C932E934F5F5F4FDFEFAD1AED
:100BD000BD0A1296F8018489958948175907C8F209
:100BE00080E0DF91CF911F910F91FF90EF90DF9008
:100BF000CF90BF90AF900895CECD08950F931F93DF
:100C0000CF93DF93EC01488959896C857D8504E693
:100C100010E020E030E084DFCE01BEDDDF91CF9137
:100C20001F910F910895D3DD58DA59DA80E090E0F2
:100C30000895A1E21A2EAA1BBB1BFD010DC0AA1F1D
:100C4000BB1FEE1FFF1FA217B307E407F50720F035
:100C5000A21BB30BE40BF50B661F771F881F991FB0
:100C60001A9469F760957095809590959B01AC01F9
:100C7000BD01CF010895EE0FFF1F0024001C0BBE25
:100C80000790F691E02D099409D0A59F900DB49F8F
:100C9000900DA49F800D911D11240895A29FB00175
:100CA000B39FC001A39F700D811D1124911DB29FA0
:0E0CB000700D811D1124911D0895F894FFCF41
:100CBE00060201000106000101000601010100010A
:100CCE000401010001070101000000010100013AC9
:100CDE00003B003900370038003600340035003351
:100CEE00003100320030002200230021006100623A
:100CFE000020006400650063002C002B002A009584
:100D0E0000900029009C009B009A009D009800997D
:020D1E000000D3
:00000001FF
