S011000041544D4547415F66772E7372656328
S11300004CC0000069C0000067C0000065C000006B
S113001063C0000061C000005FC000005DC000005C
S11300205BC00000D7C20000ABC200009FC200004A
S11300307FC2000087C2000071C2000045C20000F8
S113004019C2000049C00000C1C1000045C0000041
S1130050E7C1000041C000003FC000003DC00000F7
S11300607BC2000009C30000E9C20000F1C2000025
S1130070F9C20000D9C200002FC000002DC000004A
S11300802BC0000029C0000027C00000F10B040CA5
S1130090170C2A0C3D0C500C630C11241FBECFEF1F
S11300A0D0E1DEBFCDBF12E0A0E0B1E0E0E9FBE2C9
S11300B000E00BBF02C007900D92A632B107D9F73A
S11300C024E0A6E2B2E001C01D92A736B207E1F730
S11300D00E9400110C94C61593CF40E052EC61E0ED
S11300E070E081E00E94880908D77894089580E53B
S11300F09BD629D70F2EF7E9AF2EF1E0BF2EF02DB6
S113010011E0C4EAD1E00F2EFEEACF2EF1E0DF2E9B
S1130110F02D0F2EFAEBEF2EF1E0FF2EF02D0F2E27
S1130120F2ED8F2EF1E09F2EF02D0F2EFEED6F2EAF
S1130130F1E07F2EF02D0F2EFAEE4F2EF1E05F2E20
S1130140F02D0F2EF6EF2F2EF1E03F2EF02DBF9263
S1130150AF921F930E941A0A84E666D660E080E09C
S1130160E0D59F938F93DF93CF931F930E941A0A36
S11301709FEF29E688E1915020408040E1F700C0DC
S11301800000DF92CF921F930E941A0A8AE54CD690
S113019060E080E0C6D59F938F93DF93CF931F9346
S11301A00E941A0A8FEF99E628E18150904020407E
S11301B0E1F700C00000FF92EF921F930E941A0A19
S11301C080E532D660E080E0ACD59F938F93DF93D7
S11301D0CF931F930E941A0A2FEF89E698E12150CA
S11301E080409040E1F700C0000086EC91E09F93CE
S11301F08F931F930E941A0A86E416D660E080E06B
S113020090D59F938F93DF93CF931F930E941A0AE5
S11302102FEF89E698E1215080409040E1F700C03B
S113022000008DB79EB780960FB6F8949EBF0FBEA0
S11302308DBF9F928F921F930E941A0A8CE3F4D56C
S113024060E080E06ED59F938F93DF93CF931F93ED
S11302500E941A0A8FEF99E628E1815090402040CD
S1130260E1F700C000007F926F921F930E941A0A68
S113027082E3DAD560E080E054D59F938F93DF93D7
S1130280CF931F930E941A0A2FEF89E698E1215019
S113029080409040E1F700C000005F924F921F93AE
S11302A00E941A0A88E2C0D560E080E03AD59F93A4
S11302B08F93DF93CF931F930E941A0A9FEF29E62F
S11302C088E1915020408040E1F700C000003F9257
S11302D02F921F930E941A0A8EE1A6D560E080E057
S11302E020D59F938F93DF93CF931F930E941A0A75
S11302F08FEF99E628E1815090402040E1F700C05B
S113030000008DB79EB780960FB6F8949EBF0FBEBF
S11303108DBF82E092E09F938F931F930E941A0AED
S113032084E182D560E080E0FCD49F938F93DF93D7
S1130330CF931F930E941A0A2FEF89E698E1215068
S113034080409040E1F700C000008EE092E09F936F
S11303508F931F930E941A0A8AE066D560E080E0BA
S1130360E0D49F938F93DF93CF931F930E941A0A35
S11303702FEF89E698E1215080409040E1F700C0DA
S113038000008AE192E09F938F931F930E941A0AC0
S113039080E04AD560E080E0C4D49F938F93DF93DC
S11303A0CF931F930E941A0A2FEF89E698E12150F8
S11303B080409040E1F700C000008DB79EB748969A
S11303C00FB6F8949EBF0FBE8DBFC1CE1F920F9281
S11303D00FB60F9211240BB60F922F933F934F93A6
S11303E05F936F937F938F939F93AF93BF93EF9399
S11303F0FF9389E394E00E94EB10FF91EF91BF918A
S1130400AF919F918F917F916F915F914F913F91A8
S11304102F910F900BBE0F900FBE0F901F90189549
S11304201F920F920FB60F9211240BB60F922F93B7
S11304303F934F935F936F937F938F939F93AF9368
S1130440BF93EF93FF9389E394E00E94E910FF9137
S1130450EF91BF91AF919F918F917F916F915F9138
S11304604F913F912F910F900BBE0F900FBE0F90A5
S11304701F9018951F920F920FB60F9211240BB66E
S11304800F922F933F934F935F936F937F938F9329
S11304909F93AF93BF93EF93FF9387E793E00E94FB
S11304A0F00DFF91EF91BF91AF919F918F917F914B
S11304B06F915F914F913F912F910F900BBE0F90D1
S11304C00FBE0F901F9018951F920F920FB60F92A8
S11304D011240BB60F922F933F934F935F936F9317
S11304E07F938F939F93AF93BF93EF93FF9387E78C
S11304F093E00E94F60DFF91EF91BF91AF919F9110
S11305008F917F916F915F914F913F912F910F90B8
S11305100BBE0F900FBE0F901F9018951F920F9255
S11305200FB60F9211240F900FBE0F901F901895C5
S11305301F920F920FB60F9211240F900FBE0F90BF
S11305401F9018951F920F920FB60F9211240F90BF
S11305500FBE0F901F9018951F920F920FB60F9217
S113056011240F900FBE0F901F9018951F920F9299
S11305700FB60F9211240F900FBE0F901F90189575
S11305801F920F920FB60F9211240BB60F922F9356
S11305903F934F935F936F937F938F939F93AF9307
S11305A0BF93EF93FF938BED93E00E94F30DFF91C4
S11305B0EF91BF91AF919F918F917F916F915F91D7
S11305C04F913F912F910F900BBE0F900FBE0F9044
S11305D01F9018951F920F920FB60F9211240BB60D
S11305E00F922F933F934F935F936F937F938F93C8
S11305F09F93AF93BF93EF93FF938BED93E00E9490
S1130600F90DFF91EF91BF91AF919F918F917F91E0
S11306106F915F914F913F912F910F900BBE0F906F
S11306200FBE0F901F9018951F920F920FB60F9246
S113063011240F900FBE0F901F9018951F920F92C8
S11306400FB60F9211240F900FBE0F901F901895A4
S11306501F920F920FB60F9211240F900FBE0F909E
S11306601F9018951F920F920FB60F9211240F909E
S11306700FBE0F901F9018951F920F920FB60F92F6
S113068011240F900FBE0F901F9018950895FC0130
S113069010821182128213821482158216821782AA
S11306A020873187428753877587648781E008955F
S11306B04F925F926F927F92AF92BF92CF92DF92EE
S11306C0EF92FF920F931F93CF93DF9300D000D04C
S11306D000D0CDB7DEB79E838D83062F172F290157
S11306E03A01232B242B252B09F472C0DC018D91B4
S11306F09D910D90BC91A02D89839A83AB83BC837B
S1130700BC01CD016F5F7F4F8F4F9F4FED81FE8105
S113071020853185428553850E94A2126B017C019C
S1130720ED81FE8184819581A681B781C816D906A1
S1130730EA06FB0609F44CC0A02EB12E00E010E03E
S113074024C0C701B6016F5F7F4F8F4F9F4FAD81AC
S1130750BE8118962D913D914D915C911B970E94FD
S1130760A212BFEFAB1ABB0AC982DA82EB82FC8207
S1130770ED81FE81C480D580E680F7806C157D050F
S11307808E059F0529F16B017C01AD81BE811C960C
S11307908D919C911D97009739F0F5012081E98195
S11307A0FA81E80FF91F2083AD81BE81CD92DD92DD
S11307B0ED92FC9213970F5F1F4FC801012E000C9E
S11307C0AA0BBB0B84159505A605B70508F4B9CF8C
S11307D080E026960FB6F894DEBF0FBECDBFDF9142
S11307E0CF911F910F91FF90EF90DF90CF90BF902A
S11307F0AF907F906F905F904F900895EEE7F3E095
S113080082ED93E010821282118214821382168286
S11308101582108617821286118614861386168610
S11308201586108A1786128A118A148A138A759675
S1130830E817F90739F781E00895CF93DF93C82FBC
S1130840D0E0813009F455C038F0823009F476C024
S1130850833009F4BEC0E2C085E18C9FD0018D9F36
S1130860B00D1124A258BC4FE7E7F3E01E96FC93A9
S1130870EE931D9780E693E052969C938E93519746
S1130880108285E0828311821382CF0187D6811181
S1130890C7C085E18C9FF0018D9FF00D1124E258B3
S11308A0FC4F81E08083A189B2898C93A189B289AC
S11308B011968C93A189B28912968C93A189B289DD
S11308C013961C92A189B28914961C92618972892B
S11308D085859685B6D6882309F4A4C085E18C9FC6
S11308E0F0018D9FF00D1124E258FC4F108280E03E
S11308F09EC085E18C9FF0018D9FF00D1124E2587C
S1130900FC4FA5E6B3E0B08BA787CEE6D3E0D48B4B
S1130910C38B81E08C9395E012969C931297119669
S11309201C92119715961C921E9214971C821B827E
S11309301E821D8218861F82808379C085E18C9F68
S1130940D0018D9FB00D1124A258BC4FEBEDF3E004
S11309501E96FC93EE931D9782EE93E052969C9321
S11309608E93519782E0808312821182CF0116D632
S113097081115AC085E18C9FF0018D9FF00D1124E7
S1130980E258FC4F81E08083A189B2891C92A1893D
S1130990B28911961C92A189B28912961C92A189DE
S11309A0B28913961C92A189B28914961C9261890A
S11309B072898585968545D68823C1F185E18C9F0A
S11309C0F0018D9FF00D1124E258FC4F108280E05D
S11309D02EC085E18C9FF0018D9FF00D1124E2580B
S11309E0FC4FA7E5B3E0B08BA787C2EDD3E0D48B6F
S11309F0C38B83E08C9312961C92129711961C92CF
S1130A00119715961C921E9214971C821B821E82AB
S1130A101D8218861F8281E0808309C080E007C0A0
S1130A2080E005C081E003C080E001C081E0DF9187
S1130A30CF910895282F30E08130B1F028F0823032
S1130A4021F1833091F142C085E1829FF001839FBF
S1130A50F00D1124E258FC4F85859685B3D791E0BB
S1130A608823A9F190E033C085E1829FF001839F40
S1130A70F00D1124E258FC4F878590890E94DE0D09
S1130A8091E0882321F190E022C085E1829FF0016A
S1130A90839FF00D1124E258FC4F8585968592D7EB
S1130AA091E08823A1F090E012C085E1829FF001DB
S1130AB0839FF00D1124E258FC4F878590890E9492
S1130AC0DE0D91E0882319F090E001C091E0892FB8
S1130AD00895282F30E08130B1F028F0823019F1E8
S1130AE0833089F140C085E1829FF001839FF00D3E
S1130AF01124E258FC4F858596853CD691E08823E5
S1130B0099F190E031C085E1829FF001839FF00D5F
S1130B101124E258FC4F8785908941D691E08823BF
S1130B2019F190E021C085E1829FF001839FF00DCF
S1130B301124E258FC4F858596851CD691E08823C4
S1130B4099F090E011C085E1829FF001839FF00D40
S1130B501124E258FC4F8785908921D691E088239F
S1130B6019F090E001C091E0892F0895282F30E01A
S1130B708130D1F030F08230A9F1833009F445C0DE
S1130B8061C085E1829FF001839FF00D1124E2583A
S1130B90FC4F0584F685E02D0480F581E02D02806C
S1130BA0F381E02D60834EC085E1829FF001839F35
S1130BB0F00D1124E258FC4FA785B08916960D90CC
S1130BC0BC91A02D18960D90BC91A02D7C93078408
S1130BD0F089E02D0680F781E02D0680F781E02D75
S1130BE0608330C085E1829FF001839FF00D112462
S1130BF0E258FC4F0584F685E02D0480F581E02D54
S1130C000280F381E02D60831DC085E1829FF001A5
S1130C10839FF00D1124E258FC4FA785B0891696E6
S1130C200D90BC91A02D18960D90BC91A02D7C9395
S1130C300784F089E02D0680F781E02D0680F78196
S1130C40E02D608381E00895282F30E0882319F097
S1130C508230A1F025C085E1829FF001839FF00DD1
S1130C601124E258FC4F0584F685E02D0480F581BB
S1130C70E02D0480F581E02D608312C085E1829F20
S1130C80F001839FF00D1124E258FC4F0584F68592
S1130C90E02D0480F581E02D0480F581E02D608352
S1130CA04130F1F485E1829FF001839FF00D11241E
S1130CB0E258FC4FA785B08916960D90BC91A02DE3
S1130CC01C960D90BC91A02D7C930784F089E02D97
S1130CD00680F781E02D0284F385E02D60831FC038
S1130CE04230E9F485E1829FF001839FF00D1124E5
S1130CF0E258FC4FA785B08916960D90BC91A02DA3
S1130D0050960D90BC91A02D7C930784F089E02D22
S1130D100680F781E02D0684F785E02D608381E06D
S1130D200895282F30E0882319F08230A9F028C0D4
S1130D3085E1829FF001839FF00D1124E258FC4F5E
S1130D400584F685E02D0480F581E02D0480F5818D
S1130D50E02D808190E016C085E1829FF001839FA1
S1130D60F00D1124E258FC4F0584F685E02D048033
S1130D70F581E02D0480F581E02D808190E002C0B2
S1130D8080E090E06130C1F485E1829FF001839FAF
S1130D90F00D1124E258FC4F0784F089E02D068001
S1130DA0F781E02DA485B5852C910284F385E02D8F
S1130DB0808190E0922B08956230B9F485E1829F9E
S1130DC0F001839FF00D1124E258FC4F0784F08951
S1130DD0E02D0680F781E02DA485B5852C91028451
S1130DE0F385E02D808190E0922B0895CF93DF93DB
S1130DF0C7E2D2E0EA81FB8180E00995EA81FB81C8
S1130E0081E00995DF91CF910895CF93DF93C7E2F5
S1130E10D2E0EE81FF8180E00995EE81FF8181E0DF
S1130E200995DF91CF9108950F931F93CF93DF938B
S1130E308536F0F42FEF829FC001112468E770E03B
S1130E400E948F12CFEFD0E0C61BD70B07E212E04F
S1130E50D8011896ED91FC9119976C2F80E00995B3
S1130E60D8011896ED91FC9119976C2F81E00995A2
S1130E70DF91CF911F910F910895CF93DF9381302C
S1130E8099F028F08230E9F0833041F133C0C7E2B1
S1130E90D2E0EC85FD8561E080E00995EC85FD8577
S1130EA060E081E0099526C0C7E2D2E0EC85FD85CB
S1130EB060E080E00995EC85FD8560E081E00995BE
S1130EC019C0C7E2D2E0EC85FD8560E080E00995B9
S1130ED0EC85FD8561E081E009950CC0C7E2D2E0B4
S1130EE0EC85FD8561E080E00995EC85FD8561E098
S1130EF081E00995DF91CF910895CF93DF9380E04E
S1130F005FD0882349F081E05BD0882329F087E211
S1130F1092E026D180932602C7E2D2E0E889F989DB
S1130F2060E070E080E00995E889F98960E070E0AC
S1130F3081E0099580E0A1DF80E076DF66DF81E073
S1130F40DF91CF91089580E098DF50CF089590E02D
S1130F50FC01EE0FFF1FEE0FFF1FE80FF91FED500E
S1130F60FC4F0380F481E02D2481222361F0FC01F5
S1130F70EE0FFF1FEE0FFF1F8E0F9F1FFC01ED50A2
S1130F80FC4F81810895FC01EE0FFF1FEE0FFF1F40
S1130F908E0F9F1FFC01ED50FC4F8281089590E05D
S1130FA0FC01EE0FFF1FEE0FFF1F8E0F9F1FFC01B2
S1130FB0ED50FC4F0380F481E02D85810895089560
S1130FC0CF93DF93C82FD0E0882319F08130E9F064
S1130FD038C0DE01AA0FBB1FAA0FBB1FAC0FBD1F79
S1130FE0AD50BC4FE7EEF3E01496FC93EE931397E9
S1130FF011961C92119781E012968C9310821182A3
S113100012821382848315821CC0DE01AA0FBB1FC7
S1131010AA0FBB1FAC0FBD1FAD50BC4FEDEEF3E0EC
S11310201496FC93EE93139711961C92119781E0FA
S113103012968C93808392E091831282138284832C
S11310401582FE01EE0FFF1FEE0FFF1FEC0FFD1FB9
S1131050ED50FC4F0380F481E02D8181EEDB882389
S113106061F0CE01880F991F880F991FC80FD91FEF
S1131070CD50DC4F81E0888301C080E0DF91CF91C7
S11310800895282F30E0F901EE0FFF1FEE0FFF1F28
S1131090E20FF31FED50FC4F0380F481E02D6483D5
S11310A0882319F0813019F004C081E003C082E084
S11310B001C080E0F901EE0FFF1FEE0FFF1FE20FEA
S11310C0F31FED50FC4F0380F481E02D94819923AC
S11310D069F0F901EE0FFF1FEE0FFF1F2E0F3F1FE8
S11310E0F901ED50FC4F6181DBD00CC0F901EE0F2A
S11310F0FF1FEE0FFF1F2E0F3F1FF901ED50FC4F96
S11311006281CED081E00895CF93DF9390E0EC012B
S1131110CC0FDD1FCC0FDD1F8C0F9D1FEC01CD50BC
S1131120DC4FEB81FC816583EB81FC8160E070E046
S113113081811CDDEB81FC818181982F9D7F29F4C5
S1131140658170E040E080DD08C0913029F465815C
S113115070E041E079DD01C080E0DF91CF91089536
S1131160FC0180EE97E0918380838CED98E093837B
S1131170828387EF98E09583848383E199E0978362
S1131180868384E898E0918780878FEC97E0938743
S1131190828781E498E09587848787EA97E0978738
S11311A086878FED97E0918B808B81E0089561E0D5
S11311B080E076D081E00895CF9390E0FC01EE0FBB
S11311C0FF1FEE0FFF1F8E0F9F1FFC01ED50FC4F02
S11311D00380F481E02D81812DDCC82FE8DF8C2F82
S11311E0CF91089560E080E05BD081E00895CF93D3
S11311F090E0FC01EE0FFF1FEE0FFF1F8E0F9F1FED
S1131200FC01ED50FC4F0380F481E02D818161DC11
S1131210C82F8FED9EE20197F1F700C00000E2DFD6
S11312208C2FCF910895E3DFC2CF0895CF93DF933E
S113123000D0CDB7DEB71A8219828530B8F4613098
S113124011F491E09A8390E0FC01EE0FFF1FEE0F82
S1131250FF1FE80FF91FE050FF4F81818983BE0112
S11312606F5F7F4F80812BD181E001C080E00F90C0
S11312700F90DF91CF9108950F931F93CF9300E0C8
S113128011E0C0E0F80162818C2FD0DF0B5F1F4FAB
S1131290CF5FC530B9F781E0CF911F910F910895C9
S11312A0853000F5662381F090E0FC01EE0FFF1F0E
S11312B0EE0FFF1F8E0F9F1FFC01E050FF4F438175
S11312C06181808137C1089590E0FC01EE0FFF1F1A
S11312D0EE0FFF1FE80FF91FE050FF4F44816181BB
S11312E0808128C10895EDEFF3E081E294E010825B
S11312F0128211821482138216821582108617823A
S11313003996E817F90799F781E0089581E008957F
S1131310882319F0813041F14FC0E9E3F4E01082F1
S1131320418352836383748316821782158282E019
S11313308087118620E031E040E050E06BE372E00A
S11313408BE393E0A4D989E394E055D4811136C0AA
S113135041E050E069E372E089E394E01ED791E054
S1131360882379F190E02DC0E0E5F4E081E080830A
S1131370418352836383748316821782158282E0C9
S11313808087118620E031E040E050E06BE372E0BA
S113139089E493E07CD980E594E02DD4811110C0D8
S11313A041E050E06AE372E080E594E0F6D691E033
S11313B0882339F090E005C090E003C090E001C0BC
S11313C090E0892F0895CF92DF92EF92FF920F93CE
S11313D01F9369017A01882319F0813061F016C0E6
S11313E004E610E020E030E0A60189E394E000D6B2
S11313F0811110C016C004E610E020E030E0A60120
S113140080E594E0F5D5882361F008C0C12CD12C87
S1131410760107C0C12CD12C760103C0C12CD12C7C
S11314207601C701B6011F910F91FF90EF90DF90F5
S1131430CF900895CF93DF93CDB7DEB7DA950FB68B
S1131440F894DEBF0FBECDBF9E01285F3E4FCA5F3A
S1131450DE4F48815981C650D14060E071E0CE0131
S113146001960E94E1129C01990F440B550BBE0199
S11314706F5F7F4FCB5FDE4F8881C550D140A3DFC4
S1131480D3950FB6F894DEBF0FBECDBFDF91CF91D9
S113149008950895FC012081211109C02089318912
S11314A040E050E0648575858BE393E001C90895BD
S11314B0EDD8E2DE2BDFA2D916DF1FCD089590E030
S11314C0DB0111962C911197211119C0FC01EE0F2B
S11314D0FF1FE80FF91FEE0FFF1FE75EFE4F01909D
S11314E0F081E02D208181E090E00C9002C0880F13
S11314F0991F0A94E2F7809582238083089521300E
S1131500C1F4FC01EE0FFF1FE80FF91FEE0FFF1FE0
S1131510E75EFE4F0190F081E02D208181E090E0B4
S1131520DB010C9002C0880F991F0A94E2F7822B0A
S11315308083089590E0411118C0FC01EE0FFF1F55
S1131540E80FF91FEE0FFF1FE75EFE4F0280F381E5
S1131550E02D208181E090E002C0880F991F6A95F8
S1131560E2F780958223808308954130B1F4FC0131
S1131570EE0FFF1FE80FF91FEE0FFF1FE75EFE4F90
S11315800280F381E02D208181E090E002C0880F89
S1131590991F6A95E2F7822B80830895FC0180816C
S11315A0882309F448C08230E9F138C08181813050
S11315B019F08230D1F034C0EFE6F1E0A085B185B6
S11315C08C91887F8C93A085B1858C9184608C9359
S11315D0A085B1858C9182608C930084F185E02D87
S11315E080818E7F808380E00895EFE6F1E0A0851E
S11315F0B1858C91887F8C93A085B1858C91846012
S11316008C93A085B1858C9182608C930084F18544
S1131610E02D80818160808380E0089581E00895D9
S113162080E0089527E731E035832483823009F48C
S1131630BDCF80E008958FE691E09583848380E0B8
S113164008950F931F93CF93DF93DC012C912223F2
S113165009F47FC0223009F07AC007E711E07BC0AB
S1131660D801ED91FC91119780818F7B8083ED915E
S1131670FC918081877F80830CC0D801ED91FC911F
S1131680119780818F7B8083ED91FC9180818860AC
S113169080838981882319F0813041F00DC0D801FD
S11316A0ED91FC9180818F77808306C0D801ED9104
S11316B0FC918081806880838A81813099F028F050
S11316C08230E9F0833041F133C0D801ED91FC91CF
S11316D0119780818F7E8083ED91FC9180818F7D35
S11316E0808326C0D801ED91FC911197808180619F
S11316F08083ED91FC9180818F7D808319C0D80116
S1131700ED91FC91119780818F7E8083ED91FC9106
S11317108081806280830CC0D801ED91FC91119787
S1131720808180618083ED91FC91808180628083DF
S1131730D8011496ED91FC9115978C8180831296B3
S1131740ED91FC9113978B81808380E00EC081E042
S11317500CC00FE611E0EB0121DF8881882309F436
S11317607FCF813009F489CF94CFDF91CF911F913E
S11317700F910895FC018081882339F0823019F497
S1131780E7E7F1E004C081E00895EFE6F1E00190BD
S1131790F081E02D8081887F808380E00895FC01C2
S11317A08081813039F0833019F4E9E5F1E004C037
S11317B081E00895E3E4F1E00280F381E02D80818B
S11317C0887F808380E00895DC011296EC918E2F4F
S11317D090E08730910508F088C0FC01EA5BFF4F78
S11317E0D3C6EFE6F1E0A081B1818C918B7F8C931D
S11317F0A081B1818C918D7F8C930190F081E02D3B
S11318008081816080830895EFE6F1E0A081B18159
S11318108C918B7F8C93A081B1818C9182608C930D
S11318200190F081E02D80818E7F80830895EFE622
S1131830F1E0A081B1818C918B7F8C93A081B181E7
S11318408C9182608C930190F081E02D8081816085
S113185080830895EFE6F1E0A081B1818C918460EA
S11318608C93A081B1818C918D7F8C930190F081B8
S1131870E02D80818E7F80830895EFE6F1E0A081E2
S1131880B1818C9184608C93A081B1818C918D7F86
S11318908C930190F081E02D808181608083089594
S11318A0EFE6F1E0A081B1818C9184608C93A081FA
S11318B0B1818C9182608C930190F081E02D8081C4
S11318C08E7F80830895EFE6F1E0A081B1818C9151
S11318D084608C93A081B1818C9182608C930190FF
S11318E0F081E02D8081816080830895E09177010B
S11318F0F091780120812081DC0112968C91833053
S113190071F128F4882349F08130C1F008958530BD
S1131910B9F1863009F445C0089580818B7F8083B6
S1131920EFE6F1E0A085B1858C918D7F8C930084E6
S1131930F185E02D808181608083089580818B7F93
S11319408083EFE6F1E0A085B1858C9182608C9371
S11319500084F185E02D80818E7F808308958081CD
S11319608B7F8083EFE6F1E0A085B1858C91826066
S11319708C930084F185E02D8081816080830895BB
S1131980808184608083EFE6F1E0A085B1858C914D
S11319908D7F8C930084F185E02D80818E7F808300
S11319A00895808184608083EFE6F1E0A085B185AD
S11319B08C918D7F8C930084F185E02D80818160F2
S11319C080830895FC012081222389F0223059F478
S11319D0A7E7B1E00EC0CF01F7DE80E00895CF01A4
S11319E085DF80E0089581E0089580E00895AFE602
S11319F0B1E0FC0112960D90BC91A02D83818C93D3
S1131A008081882341F3823051F3EFCFE091450187
S1131A10F091460120812081DC0112968C91833063
S1131A2071F128F4882349F08130C1F0089585309C
S1131A30B9F1863009F445C0089580818B7F808395
S1131A40E3E4F1E0A281B3818C918D7F8C930280D9
S1131A50F381E02D808181608083089580818B7F74
S1131A608083E3E4F1E0A281B3818C9182608C9362
S1131A700280F381E02D80818E7F808308958081B0
S1131A808B7F8083E3E4F1E0A281B3818C91826057
S1131A908C930280F381E02D80818160808308959E
S1131AA0808184608083E3E4F1E0A281B3818C913E
S1131AB08D7F8C930280F381E02D80818E7F8083E3
S1131AC00895808184608083E3E4F1E0A281B3819E
S1131AD08C918D7F8C930280F381E02D80818160D5
S1131AE080830895E0915B01F0915C012081208165
S1131AF0DC0112968C91833071F128F4882349F02B
S1131B008130C1F008958530B9F1863009F445C0BB
S1131B10089580818B7F8083E3E4F1E0A08DB18D13
S1131B208C918D7F8C93008CF18DE02D8081816070
S1131B308083089580818B7F8083E3E4F1E0A08D2E
S1131B40B18D8C9182608C93008CF18DE02D80811D
S1131B508E7F8083089580818B7F8083E3E4F1E02E
S1131B60A08DB18D8C9182608C93008CF18DE02DD1
S1131B708081816080830895808184608083E3E430
S1131B80F1E0A08DB18D8C918D7F8C93008CF18DC3
S1131B90E02D80818E7F808308958081846080839E
S1131BA0E3E4F1E0A08DB18D8C918D7F8C93008C5A
S1131BB0F18DE02D8081816080830895FC01908106
S1131BC0913019F0933029F008C0CF011FDF80E075
S1131BD00895CF0187DF80E0089581E00895089596
S1131BE0FECF08950895FECF08950895FECF089579
S1131BF00895FECF0895CF92DF92EF92FF920F9354
S1131C001F93CF93DF93FC01C081D0E0009709F4C8
S1131C10E3C18C018185882321F0813009F441C01E
S1131C207BC081819281A381B481880F991FAA1FEF
S1131C30BB1F880F991FAA1FBB1FBC01CD01660FD4
S1131C40771F881F991F660F771F881F991FD9D385
S1131C509B01AC0160E074E284E79BE43ED320E0A6
S1131C6030E040E05FE3D4D2A0D3FE01EE0FFF1FCB
S1131C70EC0FFD1FEE0FFF1FEE0FFF1FE158FE4F8D
S1131C80A085B185C72ED82EE92EFF24CC92A2853B
S1131C90B3856C930280F381E02D80818D7F8083F6
S1131CA03BC081819281A381B481880F991FAA1FAF
S1131CB0BB1F880F991FAA1FBB1FBC01CD01660F54
S1131CC0771F881F991F9DD39B01AC0160E074E2CC
S1131CD084E79BE402D320E030E040E05FE398D265
S1131CE064D3FE01EE0FFF1FEC0FFD1FEE0FFF1F6D
S1131CF0EE0FFF1FE158FE4FA085B185C72ED82EE9
S1131D00E92EFF24CC92A285B3856C930280F381E3
S1131D10E02D808182608083F8018581823009F41E
S1131D2045C028F4882351F0813021F192C08330DA
S1131D3009F458C0843009F471C08BC0FE01EE0F61
S1131D40FF1FEC0FFD1FEE0FFF1FEE0FFF1FE158EB
S1131D50FE4FA481B5818C918B7F8C93A681B78132
S1131D608C9184608C930680F781E02D8081826061
S1131D7080836FC0FE01EE0FFF1FEC0FFD1FEE0FFF
S1131D80FF1FEE0FFF1FE158FE4FA481B5818C9118
S1131D908B7F8C93A681B7818C918B7F8C930680EB
S1131DA0F781E02D80818D7F808353C0FE01EE0F8B
S1131DB0FF1FEC0FFD1FEE0FFF1FEE0FFF1FE1587B
S1131DC0FE4FA481B5818C918B7F8C93A681B781C2
S1131DD08C918B7F8C930680F781E02D80818260CB
S1131DE0808337C0FE01EE0FFF1FEC0FFD1FEE0FC7
S1131DF0FF1FEE0FFF1FE158FE4FA481B5818C91A8
S1131E008B7F8C93A681B7818C9184608C930680A0
S1131E10F781E02D80818D7F80831BC0FE01EE0F52
S1131E20FF1FEC0FFD1FEE0FFF1FEE0FFF1FE1580A
S1131E30FE4FA481B5818C9184608C93A681B78177
S1131E408C9184608C930680F781E02D8081826080
S1131E508083F8018681882319F0813099F023C0AA
S1131E60FE01EE0FFF1FEC0FFD1FEE0FFF1FEE0F25
S1131E70FF1FE158FE4F0680F781E02D80818F7EA1
S1131E80808311C0FE01EE0FFF1FEC0FFD1FEE0F4C
S1131E90FF1FEE0FFF1FE158FE4F0680F781E02D74
S1131EA0808180618083F80187818130D9F018F0C6
S1131EB0823079F144C0FE01EE0FFF1FEC0FFD1FCD
S1131EC0EE0FFF1FEE0FFF1FE158FE4FA681B781F3
S1131ED08C918F7B8C930680F781E02D80818F7DA0
S1131EE080832DC0FE01EE0FFF1FEC0FFD1FEE0FD0
S1131EF0FF1FEE0FFF1FE158FE4FA681B7818C91A3
S1131F0080648C930680F781E02D80818F7D8083AF
S1131F1016C0FE01EE0FFF1FEC0FFD1FEE0FFF1F9B
S1131F20EE0FFF1FE158FE4FA681B7818C918064AC
S1131F308C930680F781E02D808180628083F80194
S1131F4080858130B1F018F0823029F147C0CE018C
S1131F50880F991FC80FD91FCC0FDD1FCC0FDD1FB1
S1131F60C158DE4FEC81FD8180818061808380E0F7
S1131F7036C0CE01880F991FC80FD91FCC0FDD1FA3
S1131F80CC0FDD1FC158DE4FEC81FD81808188605C
S1131F90808380E024C09E01220F331FF901EC0FDF
S1131FA0FD1FEE0FFF1FEE0FFF1FE158FE4F0480D1
S1131FB0F581E02D808188608083C20FD31FCC0F10
S1131FC0DD1FCC0FDD1FC158DE4FEC81FD81808108
S1131FD08061808380E003C081E001C080E0DF9104
S1131FE0CF911F910F91FF90EF90DF90CF900895C4
S1131FF0AF92BF92CF92DF92EF92FF920F931F9313
S1132000CF93DF938C01EC01888190E01E8A5F8777
S11320104E875B8B4A8B2D81243041F42F81211113
S113202008C0E62EF72E60E070E005C0E12CF12C2C
S113203002C0E12CF12C452BA9F1A62EB72ED70115
S113204020E030E0BC01660F771F680F791F660F30
S1132050771F660F771F61587E4F6B01D2E0CD0E5C
S1132060D11CE601E881F981908195FFFDCFE1144F
S1132070F10439F4EB01E881F981E5018881808379
S113208005C0EB01E881F9818C9180832F5F3F4F7C
S1132090DFEFAD1ABD0A1296F8014289538924175D
S11320A03507F8F280E0DF91CF911F910F91FF90F7
S11320B0EF90DF90CF90BF90AF900895AF92BF9212
S11320C0CF92DF92EF92FF920F931F93CF93DF9300
S11320D08C01EC01888190E01E8A598B488B5D8BC2
S11320E04C8B2D81243041F42F81211108C0E62E20
S11320F0F72E60E070E005C0E12CF12C02C0E12C69
S1132100F12CF80122893389232BD9F1A62EB72E7D
S1132110D70140E050E0BC01660F771F680F791FBC
S1132120660F771F660F771F61587E4F6B01F2E0D1
S1132130CF0ED11CE601E881F981908199231CF02E
S1132140908195FFFACFE114F10439F4EB01E881B1
S1132150F9818081F501808308C0EB01E881F98170
S1132160208130E011963C932E934F5F5F4FDFEF59
S1132170AD1ABD0A1296F801828993894817590746
S1132180C8F280E0DF91CF911F910F91FF90EF9003
S1132190DF90CF90BF90AF900895FC01208130E094
S11321A075876487518B408B558B448BF901EE0FF7
S11321B0FF1FE20FF31FEE0FFF1FEE0FFF1FE1588B
S11321C0FE4F0480F581E02D80818068808380E06B
S11321D008955FC908950F931F93CF93DF93EC0184
S11321E0488959896C857D8504E610E020E030E05B
S11321F065DFCE014FD9DF91CF911F910F910895E3
S113220057D90E946D000E94770080E090E0089505
S11322105058BB27AA270ED048C139D130F03ED13F
S113222020F031F49F3F11F41EF42EC10EF4E0951A
S1132230E7FB24C1E92F4AD180F3BA176207730779
S11322408407950718F071F49EF562C10EF4E095C9
S11322500B2EBA2FA02D0B01B90190010C01CA015C
S1132260A0011124FF27591B99F0593F50F4503E07
S113227068F11A16F040A22F232F342F4427585FF9
S1132280F3CF469537952795A795F0405395C9F711
S11322907EF41F16BA0B620B730B840BBAF09150C9
S11322A0A1F0FF0FBB1F661F771F881FC2F70EC068
S11322B0BA0F621F731F841F48F48795779567953B
S11322C0B795F7959E3F08F0B3CF9395880F08F024
S11322D09927EE0F9795879508950CD0E6C0DED028
S11322E040F0D5D030F021F45F3F19F0C7C0511150
S11322F010C1CAC0EBD098F39923C9F35523B1F3A5
S1132300951B550BBB27AA2762177307840738F060
S11323109F5F5F4F220F331F441FAA1FA9F333D0BF
S11323200E2E3AF0E0E830D091505040E695001C73
S1132330CAF729D0FE2F27D0660F771F881FBB1F2F
S1132340261737074807AB07B0E809F0BB0B802D09
S1132350BF01FF2793585F4F2AF09E3F510568F055
S11323608DC0D7C05F3FECF3983EDCF3869577953C
S11323706795B795F7959F5FC9F7880F911D969557
S1132380879597F90895E1E0660F771F881FBB1FB3
S1132390621773078407BA0720F0621B730B840B60
S11323A0BA0BEE1F88F7E095089598D088F09F57F0
S11323B090F0B92F9927B751A0F0D1F0660F771F8D
S11323C0881F991F1AF0BA95C9F712C0B13081F06D
S11323D09FD0B1E008959CC0672F782F8827B85FFD
S11323E039F0B93FCCF3869577956795B395D9F7CE
S11323F03EF490958095709561957F4F8F4F9F4FD8
S11324000895E89409C097FB3EF4909580957095E3
S113241061957F4F8F4F9F4F9923A9F0F92F96E92C
S1132420BB279395F695879577956795B795F111A1
S1132430F8CFFAF4BB0F11F460FF1BC06F5F7F4F3E
S11324408F4F9F4F16C0882311F096E911C0772350
S113245021F09EE8872F762F05C0662371F096E859
S1132460862F70E060E02AF09A95660F771F881F28
S1132470DAF7880F9695879597F9089597F99F67E6
S113248080E870E060E008959FEF80EC08950024F8
S11324900A941616170618060906089500240A94C5
S11324A012161306140605060895092E0394000C4B
S11324B011F4882352F0BB0F40F4BF2B11F460FFDA
S11324C004C06F5F7F4F8F4F9F4F089557FD905803
S11324D0440F551F59F05F3F71F04795880F97FBE4
S11324E0991F61F09F3F79F087950895121613069E
S11324F01406551FF2CF4695F1DF08C016161706CD
S11325001806991FF1CF8695710561050894089501
S1132510E894BB2766277727CB0197F9089597FBA3
S1132520072E16F4009406D077FD08D036D007FCA9
S113253005D03EF4909581959F4F089570956195CF
S11325407F4F0895A1E21A2EAA1BBB1BFD010DC0EB
S1132550AA1FBB1FEE1FFF1FA217B307E407F5074F
S113256020F0A21BB30BE40BF50B661F771F881F2B
S1132570991F1A9469F760957095809590959B01C1
S1132580AC01BD01CF010895EE0FFF1F0024001C14
S11325900BBE0790F691E02D0994AA1BBB1B51E1D9
S11325A007C0AA1FBB1FA617B70710F0A61BB70BBF
S11325B0881F991F5A95A9F780959095BC01CD0164
S11325C008950F931F93CF93DF93CDB7DEB72E9764
S11325D00FB6F894DEBF0FBECDBF8C01FA0186E0C2
S11325E08C831A83098377FF02C060E070E8CB0113
S11325F001979E838D83A901BF01CE01019619D055
S11326004D815E8157FD0AC02F81388542175307DB
S11326100CF49A01F801E20FF31F10822E960FB604
S1132620F894DEBF0FBECDBFDF91CF911F910F9104
S113263008952F923F924F925F926F927F928F9262
S11326409F92AF92BF92CF92DF92EF92FF920F933D
S11326501F93CF93DF93CDB7DEB72B970FB6F894C4
S1132660DEBF0FBECDBF6C017B018A01FC01178266
S11326701682838181FFBFC1CE0101963C01F60120
S11326809381F70193FD859193FF81917F018823C5
S113269009F4ADC1853239F493FD859193FF81919D
S11326A07F01853221F4B60190E0D6D1E8CF912C98
S11326B0212C312CFFE1F315D8F08B3279F038F46A
S11326C0803279F08332A1F4232D20611DC08D3234
S11326D061F0803369F4232D216016C0832D82605C
S11326E0382EE32DE4603E2E2AC0F32DF8601DC081
S11326F037FC2DC020ED280F2A3040F08E32B9F47B
S113270036FC75C1232D2064322E19C036FE06C056
S11327108AE0989E200D1124922E11C0EAE02E9E8C
S1132720200D1124222EF32DF0623F2E08C08C368A
S113273021F4832D8068382E02C0883641F4F701D5
S113274093FD859193FF81917F018111B3CF982FE0
S11327509F7D9554933028F40C5F1F4F9FE399831A
S11327600DC0833631F0833771F0833509F055C0DD
S113277020C0F801808189830E5F1F4F88248394D1
S1132780912C530112C02801F2E04F0E511CF801A4
S1132790A080B18036FE03C0692D70E002C06FEFE7
S11327A07FEFC5014ED14C018201F32DFF773F2EFF
S11327B015C0280122E0420E511CF801A080B1800E
S11327C036FE03C0692D70E002C06FEF7FEFC501D4
S11327D02DD14C01F32DF0683F2E820133FC19C03A
S11327E0822D90E088169906A0F4B60180E290E06C
S11327F033D12A94F5CFF50137FC859137FE8191C9
S11328005F01B60190E028D121102A9421E0821AB8
S113281091088114910479F7E1C0843611F0893666
S113282039F5F80137FE07C0608171818281938197
S11328300C5F1F4F08C060817181072E000C880B4C
S1132840990B0E5F1F4FF32DFF763F2E97FF09C0A4
S113285090958095709561957F4F8F4F9F4FF0684D
S11328603F2E2AE030E0A30133D1882E861844C0DD
S1132870853731F4232D2F7EB22E2AE030E025C097
S1132880932D997FB92E8F36C1F018F4883579F0DD
S1132890AEC0803719F0883721F0A9C0E92FE06174
S11328A0BE2EB4FE0DC0FB2DF460BF2E09C034FE55
S11328B00AC0292F2660B22E06C028E030E005C0E9
S11328C020E130E002C020E132E0F801B7FE07C0A9
S11328D060817181828193810C5F1F4F06C060818A
S11328E0718180E090E00E5F1F4FA301F1D0882E2C
S11328F08618FB2DFF773F2E36FE0DC0232D2E7F2D
S1132900A22E891458F434FE0BC032FC09C0832D66
S11329108E7EA82E05C0B82CA32C03C0B82C01C0F1
S1132920B92CA4FE0FC0FE01E80DF11D8081803397
S113293021F49A2D997EA92E09C0A2FE06C0B39453
S1132940B39404C08A2D867809F0B394A3FC10C014
S1132950A0FE06C0B21480F4280C922C9B180DC063
S1132960B21458F4B60180E290E076D0B394F8CF74
S1132970B21418F42B1802C0982C212CA4FE0FC0FA
S1132980B60180E390E068D0A2FE16C0A1FC03C0AB
S113299088E790E002C088E590E0B6010CC08A2D7B
S11329A0867851F0A1FE02C08BE201C080E2A7FC50
S11329B08DE2B60190E050D0891430F4B60180E382
S11329C090E04AD09A94F8CF8A94F301E80DF11D6F
S11329D08081B60190E040D08110F6CF222009F426
S11329E04ECEB60180E290E037D02A94F7CFF601BC
S11329F08681978102C08FEF9FEF2B960FB6F894D4
S1132A00DEBF0FBECDBFDF91CF911F910F91FF901D
S1132A10EF90DF90CF90BF90AF909F908F907F907A
S1132A206F905F904F903F902F900895FC01059018
S1132A30615070400110D8F7809590958E0F9F1FBC
S1132A400895FC016150704001900110D8F7809501
S1132A5090958E0F9F1F08950F931F93CF93DF932D
S1132A60FB01238121FD03C08FEF9FEF2CC022FFC8
S1132A7016C046815781248135814217530744F497
S1132A80A081B1819D012F5F3F4F318320838C93BF
S1132A90268137812F5F3F4F3783268314C08B01F4
S1132AA0EC01FB010084F185E02D0995892BE1F609
S1132AB0D80116968D919C911797019617969C9321
S1132AC08E931697CE01DF91CF911F910F910895A8
S1132AD0FA01AA27283051F1203181F1E8946F934B
S1132AE06E7F6E5F7F4F8F4F9F4FAF4FB1E03ED0F1
S1132AF0B4E03CD0670F781F891F9A1FA11D680F8F
S1132B00791F8A1F911DA11D6A0F711D811D911DC1
S1132B10A11D20D009F468943F912AE0269F112436
S1132B203019305D3193DEF6CF010895462F47709A
S1132B30405D4193B3E00FD0C9F7F6CF462F4F70F5
S1132B40405D4A3318F0495D31FD4052419302D053
S1132B50A9F7EACFB4E0A6959795879577956795F9
S1132B60BA95C9F700976105710508959B01AC01F9
S1132B700A2E06945795479537952795BA95C9F720
S1132B80620F731F841F951FA01D0895F894FFCF33
S1132B900600010001060101010006020101000115
S1132BA00401010001070101003A003B003900372C
S1132BB00038003600340035003300310032003074
S1132BC000220023002100610062002000640065EF
S1132BD00063004F004E007A004C004D004A004B49
S1132BE00048004900460047008B008A008C00889A
S1132BF000890086008700840085008000810053DE
S1132C000052005100500045004400430000002CD5
S1132C10002B002A009500900029009C009B009A3C
S1132C20009D00980099007370656564203A203116
S1132C3030300A006F6372203A2025640A007370F2
S1132C40656564203A2039300A0073706565642034
S1132C503A2038300A007370656564203A203730B2
S1132C600A007370656564203A2036300A00737078
S1132C70656564203A2035300A0073706565642008
S1132C803A2034300A007370656564203A2033308A
S1132C900A007370656564203A2032300A0073704C
S1132CA0656564203A2031300A00737065656420DC
S1092CB03A20300A000086
S9030000FC
