:1000000055C0000072C0000070C000006EC000004B
:100010006CC000006AC0000068C0000066C000003C
:1000200064C00000C0C1000094C1000088C100008D
:1000300068C1000070C100005AC100002EC100005C
:1000400002C1000052C0000056C000004EC00000B7
:100050007CC000004AC0000048C0000046C000004C
:1000600064C10000F2C10000D2C10000DAC100008A
:10007000E2C10000C2C1000092C0000036C0000012
:10008000B8C0000032C0000030C000002A0B320BA4
:100090003A0B3E0B420B530B570B670B7B0BC00EFF
:1000A000D30EE60EF90E0C0F1F0F320F11241FBED8
:1000B000CFEFD0E1DEBFCDBF11E0A0E0B1E0EEE5D3
:1000C000FBE200E00BBF02C007900D92AC39B10714
:1000D000D9F727E0ACE9B1E001C01D92AF3FB2070C
:1000E000E1F70E94CC130C94AD158ACF7894089553
:1000F0000E94BC0AFDCF1F920F920FB60F921124DF
:100100000BB60F922F933F934F935F936F937F9311
:100110008F939F93AF93BF93EF93FF9381ED97E0FE
:100120000E94B713FF91EF91BF91AF919F918F9173
:100130007F916F915F914F913F912F910F900BBEE7
:100140000F900FBE0F901F9018951F920F920FB631
:100150000F9211240BB60F922F933F934F935F93FF
:100160006F937F938F939F93AF93BF93EF93FF937F
:1001700081ED97E00E94B513FF91EF91BF91AF9190
:100180009F918F917F916F915F914F913F912F91AF
:100190000F900BBE0F900FBE0F901F9018951F92DF
:1001A0000F920FB60F9211240BB60F922F933F931D
:1001B0004F935F936F937F938F939F93AF93BF936F
:1001C000EF93FF9388EE97E00E94B713FF91EF91B2
:1001D000BF91AF919F918F917F916F915F914F915F
:1001E0003F912F910F900BBE0F900FBE0F901F905D
:1001F00018951F920F920FB60F9211240BB60F9203
:100200002F933F934F935F936F937F938F939F931E
:10021000AF93BF93EF93FF9388EE97E00E94B513DF
:10022000FF91EF91BF91AF919F918F917F916F91CE
:100230005F914F913F912F910F900BBE0F900FBE8A
:100240000F901F9018951F920F920FB60F921124C6
:100250000BB60F922F933F934F935F936F937F93C0
:100260008F939F93AF93BF93EF93FF938FEE93E0A2
:100270000E94BF10FF91EF91BF91AF919F918F911D
:100280007F916F915F914F913F912F910F900BBE96
:100290000F900FBE0F901F9018951F920F920FB6E0
:1002A0000F9211240BB60F922F933F934F935F93AE
:1002B0006F937F938F939F93AF93BF93EF93FF932E
:1002C0008FEE93E00E94C510FF91EF91BF91AF9127
:1002D0009F918F917F916F915F914F913F912F915E
:1002E0000F900BBE0F900FBE0F901F9018951F928E
:1002F0000F920FB60F9211240F900FBE0F901F9008
:1003000018951F920F920FB60F9211240F900FBEE7
:100310000F901F9018951F920F920FB60F921124F5
:100320000F900FBE0F901F9018951F920F920FB64F
:100330000F9211240F900FBE0F901F9018951F92CF
:100340000F920FB60F9211240F900FBE0F901F90B7
:1003500018951F920F920FB60F9211240BB60F92A1
:100360002F933F934F935F936F937F938F939F93BD
:10037000AF93BF93EF93FF9383E594E00E94C21085
:10038000FF91EF91BF91AF919F918F917F916F916D
:100390005F914F913F912F910F900BBE0F900FBE29
:1003A0000F901F9018951F920F920FB60F92112465
:1003B0000BB60F922F933F934F935F936F937F935F
:1003C0008F939F93AF93BF93EF93FF9383E594E055
:1003D0000E94C810FF91EF91BF91AF919F918F91B3
:1003E0007F916F915F914F913F912F910F900BBE35
:1003F0000F900FBE0F901F9018951F920F920FB67F
:100400000F9211240F900FBE0F901F9018951F92FE
:100410000F920FB60F9211240F900FBE0F901F90E6
:1004200018951F920F920FB60F9211240F900FBEC6
:100430000F901F9018951F920F920FB60F921124D4
:100440000F900FBE0F901F9018951F920F920FB62E
:100450000F9211240F900FBE0F901F9018950895C2
:10046000FC0110821182128213821482158216827C
:10047000178220873187428753877587648781E099
:1004800008954F925F926F927F92AF92BF92CF92F8
:10049000DF92EF92FF920F931F93CF93DF9300D0E1
:1004A00000D000D0CDB7DEB79E838D83062F172FE7
:1004B00029013A01232B242B252B09F472C0DC01DE
:1004C0008D919D910D90BC91A02D89839A83AB83D2
:1004D000BC83BC01CD016F5F7F4F8F4F9F4FED817C
:1004E000FE8120853185428553850E946E156B0102
:1004F0007C01ED81FE8184819581A681B781C8163A
:10050000D906EA06FB0609F44CC0A02EB12E00E085
:1005100010E024C0C701B6016F5F7F4F8F4F9F4F20
:10052000AD81BE8118962D913D914D915C911B97A7
:100530000E946E15BFEFAB1ABB0AC982DA82EB824A
:10054000FC82ED81FE81C480D580E680F7806C1549
:100550007D058E059F0529F16B017C01AD81BE8172
:100560001C968D919C911D97009739F0F501208183
:10057000E981FA81E80FF91F2083AD81BE81CD9218
:10058000DD92ED92FC9213970F5F1F4FC801012E71
:10059000000CAA0BBB0B84159505A605B70508F43E
:1005A000B9CF80E026960FB6F894DEBF0FBECDBF60
:1005B000DF91CF911F910F91FF90EF90DF90CF903F
:1005C000BF90AF907F906F905F904F9008954F9243
:1005D0005F926F927F928F929F92AF92BF92EF92B3
:1005E000FF920F931F93CF93DF93EC0149015A01C0
:1005F000232B242B252BE9F1062F172FE12CF12C8F
:10060000EC85FD85309739F08C819D81E80FF91FCD
:100610008081F80180838C819D81AE81BF8148807B
:1006200059806A807B8084159505A605B70519F168
:10063000BC01CD016F5F7F4F8F4F9F4F288539855C
:100640004A855B850E946E156C837D838E839F83B4
:10065000FFEFEF1AFF0A0F5F1F4FC7010F2C000CAF
:10066000AA0BBB0B88159905AA05BB0548F281E0CA
:1006700003C081E001C080E0DF91CF911F910F9115
:10068000FF90EF90BF90AF909F908F907F906F9072
:100690005F904F9008950F931F93FC01808191818B
:1006A000A281B3810481158126813781BC01CD01EE
:1006B000601B710B820B930B20853185428553851E
:1006C0000E946E151F910F910895FC0110821182F6
:1006D0001282138214821582168217820895E6EF21
:1006E000F3E08AE494E01082128211821482138271
:1006F000168215821086178212861186148613863A
:1007000016861586108A1786128A118A148A138A09
:100710007596E817F90739F781E00895CF93DF93CD
:10072000C82FD0E0813009F457C038F0823009F486
:1007300078C0833009F4C3C0E7C085E18C9FD00145
:100740008D9FB00D1124AA50BC4FEFEEF3E01E9622
:10075000FC93EE931D9788ED93E052969C938E93B5
:100760005197108285E0828311821382CF010E940B
:100770009D0D8111CBC085E18C9FF0018D9FF00D07
:100780001124EA50FC4F81E08083A189B2898C93C7
:10079000A189B28911968C93A189B28912968C9302
:1007A000A189B28913961C92A189B28914961C92D0
:1007B00061897289858596850E94F00D882309F4E8
:1007C000A7C085E18C9FF0018D9FF00D1124EA50A8
:1007D000FC4F108280E0A1C085E18C9FF0018D9FCD
:1007E000F00D1124EA50FC4FADEDB3E0B08BA787BC
:1007F000C6EED3E0D48BC38B81E08C9395E0129648
:100800009C93129711961C92119715961C921E920A
:1008100014971C821B821E821D8218861F82808371
:100820007CC085E18C9FD0018D9FB00D1124AA5012
:10083000BC4FE3E5F4E01E96FC93EE931D978AE52A
:1008400094E052969C938E93519782E0808385E04A
:1008500082831182CF010E949D0D81115BC085E1D1
:100860008C9FF0018D9FF00D1124EA50FC4F81E028
:100870008083A189B2898C93A189B28911968C93C6
:10088000A189B28912968C93A189B28913961C9280
:10089000A189B28914961C92618972898585968591
:1008A0000E94F00D8823C1F185E18C9FF0018D9F9E
:1008B000F00D1124EA50FC4F108280E02EC085E13B
:1008C0008C9FF0018D9FF00D1124EA50FC4FAFEC8E
:1008D000B3E0B08BA787CAE4D4E0D48BC38B83E0AA
:1008E0008C9312961C92129711961C921197159642
:1008F0001C921E9214971C821B821E821D821886D7
:100900001F8281E0808309C080E007C080E005C0CD
:1009100081E003C080E001C081E0DF91CF910895C4
:10092000282F30E08130B9F028F0823029F183306F
:10093000A1F144C085E1829FF001839FF00D112455
:10094000EA50FC4F858596850E94B10F91E088237F
:10095000B1F190E034C085E1829FF001839FF00DFA
:100960001124EA50FC4F878590890E94AD1091E0D8
:10097000882329F190E023C085E1829FF001839FC5
:10098000F00D1124EA50FC4F858596850E94B10F29
:1009900091E08823A1F090E012C085E1829FF001F0
:1009A000839FF00D1124EA50FC4F878590890E94A7
:1009B000AD1091E0882319F090E001C091E0892FFB
:1009C0000895282F30E08130B9F028F0823029F1E5
:1009D0008330A1F144C085E1829FF001839FF00D37
:1009E0001124EA50FC4F858596850E94890E91E07E
:1009F0008823B1F190E034C085E1829FF001839FAC
:100A0000F00D1124EA50FC4F878590890E949E0EBC
:100A100091E0882329F190E023C085E1829FF001D5
:100A2000839FF00D1124EA50FC4F858596850E9426
:100A3000890E91E08823A1F090E012C085E1829FA9
:100A4000F001839FF00D1124EA50FC4F87859089B7
:100A50000E949E0E91E0882319F090E001C091E081
:100A6000892F0895282F30E08130D1F030F0823086
:100A7000A9F1833009F445C061C085E1829FF0018E
:100A8000839FF00D1124EA50FC4F0584F685E02D7C
:100A90000480F581E02D0280F381E02D60834EC05B
:100AA00085E1829FF001839FF00D1124EA50FC4FF5
:100AB000A785B08916960D90BC91A02D18960D9023
:100AC000BC91A02D7C930784F089E02D0680F781EE
:100AD000E02D0680F781E02D608330C085E1829FA4
:100AE000F001839FF00D1124EA50FC4F0584F68538
:100AF000E02D0480F581E02D0280F381E02D6083FC
:100B00001DC085E1829FF001839FF00D1124EA5002
:100B1000FC4FA785B08916960D90BC91A02D189614
:100B20000D90BC91A02D7C930784F089E02D068068
:100B3000F781E02D0680F781E02D608381E0089544
:100B4000282F30E0882319F08230A1F025C085E1FC
:100B5000829FF001839FF00D1124EA50FC4F058421
:100B6000F685E02D0480F581E02D0480F581E02DEF
:100B7000608312C085E1829FF001839FF00D1124F4
:100B8000EA50FC4F0584F685E02D0480F581E02DC8
:100B90000480F581E02D60834130F1F485E1829F8E
:100BA000F001839FF00D1124EA50FC4FA785B08916
:100BB00016960D90BC91A02D1C960D90BC91A02D69
:100BC0007C930784F089E02D0680F781E02D028474
:100BD000F385E02D60831FC04230E9F485E1829FF8
:100BE000F001839FF00D1124EA50FC4FA785B089D6
:100BF00016960D90BC91A02D50960D90BC91A02DF5
:100C00007C930784F089E02D0680F781E02D06842F
:100C1000F785E02D608381E00895CF93DF93CFE9DE
:100C2000D1E0EA81FB8180E00995EA81FB8181E0E6
:100C30000995DF91CF910895CF93DF93CFE9D1E06C
:100C4000EC81FD8180E00995EC81FD8181E00995D1
:100C5000DF91CF910895CF93DF93CFE9D1E0EE817B
:100C6000FF8180E00995EE81FF8181E00995DF91A8
:100C7000CF9108951F93CF93DF93182FCFE9D1E041
:100C8000E885F985682F80E00995E885F985612F69
:100C900081E00995DF91CF911F910895E091A7011F
:100CA000F091A801682F80E009950895E091A701CF
:100CB000F091A801682F81E0099508950F931F9383
:100CC000CF93DF930FE911E0D8011A96ED91FC91D3
:100CD0001B9780E00995CCE9D1E08883D8011A966A
:100CE000ED91FC911B9781E009958983CE01DF91FD
:100CF000CF911F910F910895E091AB01F091AC015C
:100D0000682F80E009950895E091AB01F091AC0166
:100D1000682F81E009950895CF93DF93813099F092
:100D200028F08230E9F0833041F133C0CFE9D1E0DF
:100D3000EC85FD8561E080E00995EC85FD8560E04E
:100D400081E0099526C0CFE9D1E0EC85FD8560E022
:100D500080E00995EC85FD8560E081E0099519C08A
:100D6000CFE9D1E0EC85FD8560E080E00995EC8578
:100D7000FD8561E081E009950CC0CFE9D1E0EC850B
:100D8000FD8561E080E00995EC85FD8561E081E00D
:100D90000995DF91CF910895CF93DF9380E0ADD196
:100DA000882349F081E0A9D1882329F08FE991E0D7
:100DB00074D280939E01CFE9D1E0E889F98960E09F
:100DC00070E080E00995E889F98960E070E081E0F1
:100DD000099580E0A1DF80E04DDF3DDF2DDF81E080
:100DE000DF91CF91089580E097DF17CF089582E0DB
:100DF00093DF13CF0895882319F083E08DDF02C0BD
:100E000081E08ADF0ACF0895CF92DF92EF92FF92BE
:100E10000F931F93CF93DF9394E6980F993C08F0BC
:100E20002AC1282F082E000C330B33231CF43195D4
:100E300021953109C82FD22F41DF8C01CC230CF032
:100E400068C0DC018C9111962C91821788F1D89F93
:100E5000C00111240F2EF8E7EF2EF12CF02DB70171
:100E60000E945B15CFEF6C9FC0011124B7010E9457
:100E70005B1560950F2EFFE9CF2EF1E0DF2EF02DF0
:100E8000D6011896ED91FC91199780E00995F8012B
:100E90008081C89FC0011124B7010E945B15609535
:100EA000D6011896ED91FC91199781E00995E2C061
:100EB000D29FC00111240F2EF8E7EF2EF12CF02D58
:100EC000B7010E945B15CFEF6C9FC0011124B701E1
:100ED0000E945B1560950F2EFFE9CF2EF1E0DF2E0B
:100EE000F02DD6011896ED91FC91199780E00995A7
:100EF000F8018181C89FC0011124B7010E945B15D0
:100F00006095D6011896ED91FC91199781E00995AD
:100F1000B1C01C160CF06EC0FC01808101818017ED
:100F2000A8F1082F10E0CFEFC09FC001C19F900D26
:100F300011240F2EF8E7EF2EF12CF02DB7010E94AF
:100F40005B1560950F2EFFE9CF2EF1E0DF2EF02D1F
:100F5000D6011896ED91FC91199780E00995D09FE4
:100F6000C001D19F900D1124B7010E945B156C9FA9
:100F7000C0011124B7010E945B156095D601189637
:100F8000ED91FC91199781E0099574C010E0CFEFC5
:100F9000C09FC001C19F900D11240F2EF8E7EF2EC6
:100FA000F12CF02DB7010E945B1560950F2EFFE923
:100FB000CF2EF1E0DF2EF02DD6011896ED91FC91A9
:100FC000199780E00995D09FC001D19F900D112401
:100FD000B7010E945B156C9FC0011124B7010E94EC
:100FE0005B156095D6011896ED91FC91199781E0FB
:100FF000099540C0C1113EC0FC01808191818917D3
:10100000E8F0FFEF8F9FC001112468E770E00E94B5
:101010005B15C62FC0950FE911E0D8011896ED9128
:10102000FC9119976C2F80E00995D8011896ED91E5
:10103000FC9119976C2F81E009951CC0BFEF9B9F15
:10104000C001112468E770E00E945B15C62FC095AF
:101050000FE911E0D8011896ED91FC9119976C2FCA
:1010600080E00995D8011896ED91FC9119976C2FA5
:1010700081E00995D2DDDF91CF911F910F91FF9013
:10108000EF90DF90CF90089590E0FC01EE0FFF1FEE
:10109000EE0FFF1FE80FF91FE559FB4F0380F481A6
:1010A000E02D2481222361F0FC01EE0FFF1FEE0FE3
:1010B000FF1F8E0F9F1FFC01E559FB4F8181089593
:1010C000FC01EE0FFF1FEE0FFF1F8E0F9F1FFC0195
:1010D000E559FB4F8281089590E0FC01EE0FFF1F60
:1010E000EE0FFF1F8E0F9F1FFC01E559FB4F038082
:1010F000F481E02D858108950895CF93DF93C82F63
:10110000D0E0882319F08130E9F038C0DE01AA0F61
:10111000BB1FAA0FBB1FAC0FBD1FA559BB4FEFE5EF
:10112000F4E01496FC93EE93139711961C9211978A
:1011300081E012968C9310821182128213821482A3
:1011400015821CC0DE01AA0FBB1FAA0FBB1FAC0F6C
:10115000BD1FA559BB4FE5E6F4E01496FC93EE9352
:10116000139781E011968C93119712961C928083AD
:1011700092E091831282138284831582FE01EE0F26
:10118000FF1FEE0FFF1FEC0FFD1FE559FB4F038004
:10119000F481E02D8181C2DA882361F0CE01880FCD
:1011A000991F880F991FC80FD91FC559DB4F81E0C0
:1011B000888301C080E0DF91CF910895282F30E02F
:1011C000F901EE0FFF1FEE0FFF1FE20FF31FE559AE
:1011D000FB4F0380F481E02D6483882319F0813074
:1011E00019F004C081E003C082E001C080E0F90191
:1011F000EE0FFF1FEE0FFF1FE20FF31FE559FB4F2E
:101200000380F481E02D9481992369F0F901EE0FB8
:10121000FF1FEE0FFF1F2E0F3F1FF901E559FB4F78
:101220006181D5D00CC0F901EE0FFF1FEE0FFF1F3B
:101230002E0F3F1FF901E559FB4F6281C8D081E0B5
:101240000895CF93DF9390E0EC01CC0FDD1FCC0F1E
:10125000DD1F8C0F9D1FEC01C559DB4FEB81FC811D
:101260006583EB81FC8160E070E08181FBDBEB81D9
:10127000FC818181982F9D7F29F4658170E040E099
:101280005FDC08C0913029F4658170E041E058DCF2
:1012900001C080E0DF91CF910895FC018DE798E0D7
:1012A0009183808389E799E09383828384E999E03D
:1012B000958384838AEA99E09783868381E299E023
:1012C000918780878CE698E0938782878EED98E0FF
:1012D0009587848784E498E0978786878CE798E0F1
:1012E000918B808B81E0089561E080E070D081E097
:1012F0000895CF9390E0FC01EE0FFF1FEE0FFF1F4C
:101300008E0F9F1FFC01E559FB4F0380F481E02DF8
:10131000818106DBC82FE8DF8C2FCF91089560E034
:1013200080E055D081E00895CF9390E0FC01EE0F6E
:10133000FF1FEE0FFF1F8E0F9F1FFC01E559FB4F94
:101340000380F481E02D81813CDBC82FE8DF8C2F06
:10135000CF910895E9DFC8CF0895CF93DF9300D0F0
:10136000CDB7DEB71A8219828630B8F4613011F435
:1013700091E09A8390E0FC01EE0FFF1FEE0FFF1F3C
:10138000E80FF91FE050FF4F81818983BE016F5F35
:101390007F4F808163D381E001C080E00F900F9088
:1013A000DF91CF9108950F931F93CF9300E011E049
:1013B000C0E0F80162818C2FD0DF0B5F1F4FCF5F41
:1013C000C630B9F781E0CF911F910F910895863013
:1013D00000F5662381F090E0FC01EE0FFF1FEE0F99
:1013E000FF1F8E0F9F1FFC01E050FF4F4381618163
:1013F00080816FC3089590E0FC01EE0FFF1FEE0F98
:10140000FF1FE80FF91FE050FF4F44816181808189
:1014100060C30895E5E7F4E089E994E01082128260
:1014200011821482138216821582108617823996D1
:10143000E817F90799F781E008950DCC08950BDCC2
:101440002FEF81EE94E0215080409040E1F700C002
:101450000000F2CB0895FC0180810CDCC4CC08951F
:10146000FC01808107DCC3CC0895CF93DF93EC01AE
:10147000898100DC81E09881911101C080E0BBDCB2
:10148000DF91CF910895CF93DF93EC018981F2DB57
:101490008881BADCDF91CF910895CF93DF93EC017F
:1014A0008881FCDB81E09981911101C080E024DC1E
:1014B000B4DBDF91CF910895CF93DF93EC01888166
:1014C000F5DB81E09981911101C080E01DDCA5DB95
:1014D000DF91CF910895CF93DF93EC018881DEDB1C
:1014E00081E09981911101C080E006DC8A81DEDB18
:1014F00081E09B81911101C080E006DC8EDBDF91F1
:10150000CF9108954AD081EB94E049D020E036E9AC
:1015100040E050E060E081EB94E046D06FE17AE09B
:1015200081EB94E023D16DE17AE081EB94E01ED170
:101530006BE27AE081EB94E019D160E37AE081EB31
:1015400094E014D165E37AE081EB94E00FD163E499
:101550007AE081EB94E00AD16DE47AE081EB94E0EB
:1015600005D16CE57AE081EB94E000D16BE67AE09E
:1015700081EB94E0FBC0089581EB94E042D0882396
:1015800059F06091BF0466233CF04091C004509133
:10159000C10481EB94E0FCC0089581E008958E5E63
:1015A0009D4F2FD181E00895CF93DF93EC01962FCB
:1015B000FE01EE5EFD4F8081882301F1BA01A90191
:1015C000892F99834A835B836C837D831F821E826C
:1015D000188A1F8631960190F081E02D0995888345
:1015E000FE01E15EFD4F9E01215E3C4F1192119282
:1015F000E217F307D9F7C15EDC4F1882DF91CF9174
:1016000008951F93CF93DF93FC011081112309F4F8
:10161000A8C0EC01E95EFD4F0190F081E02D8981C9
:101620000995672B682B692B09F496C0FE01E55ECE
:10163000FD4F0190F081E02D89810995EE814E2FBB
:1016400050E04930510508F07FC0FA01EA5BFF4FD6
:101650000C9490158F3F21F48A8B81E08E8380C09B
:101660001E827EC08F3F21F48B8B82E08E8378C0F8
:101670001E8276C08C8B83E08E8372C08D8B84E05B
:101680008E836EC08E8B2C899D89920F90959C873E
:10169000891303C085E08E8301C01E82822F90E0F3
:1016A0009B878A875DC08F8B86E08E8359C0888F29
:1016B00087E08F83CE014996988B8F878A859B859B
:1016C000892B19F087E08E834BC01E8240C02F818A
:1016D00091E0920F9F83FE01E20FF11D828B892F13
:1016E00090E02A853B85295F3F4F82179307C0F121
:1016F00088E08E8335C09F81FE01E90FF11D828B4A
:101700002A853B852115310591F0FE017996275EEA
:101710003F4F2C0F3D1F40E050E0BA019191490F1F
:10172000511D611D711DE217F307C1F703C040E0B1
:1017300050E0BA014095498B841303C01E8281E0BA
:1017400001C080E01F8201C080E0882339F0888DCD
:101750008D878F898E8705C010E003C010E001C01F
:1017600010E0812FDF91CF911F9108959C01DC0142
:10177000A15EBC4F9C91E92FF0E0EE0FFF1FE20F3E
:10178000F31FE15EFD4F718360839F5F9C9308951B
:1017900066236CF0FC0170E0660F771FE60FF71F01
:1017A000E15EFD4F0190F081E02DCA010995089599
:1017B00081E00895811103C081E042C0089580E076
:1017C0000895811103C081E098C0089560E070E041
:1017D000CB010895811103C081E0D1C0089560E07C
:1017E00070E0CB010895811103C081E099C0089594
:1017F00080E00895811103C081E0F8C0089581E080
:101800000895FC0181E080838AED9BE092838183CF
:1018100088ED9BE09483838381EE9BE096838583B0
:101820008AEE9BE09087878383EF9BE09287818796
:101830008AEF9BE09487838781E0089581E0089593
:10184000882319F0813049F151C0E1EDF7E01082B1
:10185000418352836383748316821782158282E0E8
:101860008087118620E031E040E050E063EB71E0DA
:1018700083EB93E00E94300281ED97E08BD48111DD
:1018800037C041E050E061EB71E081ED97E051D766
:1018900091E0882381F190E02EC0E8EEF7E081E04E
:1018A00080834183528363837483168217821582F7
:1018B00082E08087118620E031E040E050E063EB79
:1018C00072E081EC93E00E94300288EE97E062D4EF
:1018D000811110C041E050E062EB71E088EE97E0CA
:1018E00028D791E0882339F090E005C090E003C04C
:1018F00090E001C090E0892F0895882319F081308D
:1019000031F00AC083EB93E00C944B03089581EC13
:1019100093E00C944B03089560E070E0CB010895D0
:10192000CF93DF931F92CDB7DEB71982882319F0CA
:10193000813089F01FC021E030E040E050E0BE017E
:101940006F5F7F4F83EB93E00E94E702811112C02B
:101950008FEF89830FC021E030E040E050E0BE010E
:101960006F5F7F4F81EC93E00E94E702811102C01C
:101970008FEF898389810F90DF91CF910895CF9266
:10198000DF92EF92FF920F931F9369017A018823F0
:1019900019F0813061F016C004E610E020E030E07C
:1019A000A60181ED97E0F3D5811110C016C004E6C1
:1019B00010E020E030E0A60188EE97E0E8D588232B
:1019C00061F008C0C12CD12C760107C0C12CD12CEC
:1019D000760103C0C12CD12C7601C701B6011F913D
:1019E0000F91FF90EF90DF90CF900895882319F02A
:1019F000813031F009C083EB93E00E94650304C09D
:101A000081EC93E00E94650381E008950895FC0154
:101A10008081882319F0813061F00895208931890F
:101A200040E050E06485758583EB93E00C944102BF
:101A300008952089318940E050E06485758581EC06
:101A400093E00C94410208950E942F02ACDCF6DE74
:101A50000E946F03DFDCA0D955CD089590E0DB0133
:101A600011962C911197211119C0FC01EE0FFF1F47
:101A7000E80FF91FEE0FFF1FE25EFE4F0190F081AD
:101A8000E02D208181E090E00C9002C0880F991F2A
:101A90000A94E2F780958223808308952130C1F46F
:101AA000FC01EE0FFF1FE80FF91FEE0FFF1FE25EB4
:101AB000FE4F0190F081E02D208181E090E0DB017C
:101AC0000C9002C0880F991F0A94E2F7822B808342
:101AD000089590E0411118C0FC01EE0FFF1FE80FC0
:101AE000F91FEE0FFF1FE25EFE4F0280F381E02D33
:101AF000208181E090E002C0880F991F6A95E2F78B
:101B000080958223808308954130B1F4FC01EE0F6B
:101B1000FF1FE80FF91FEE0FFF1FE25EFE4F02806E
:101B2000F381E02D208181E090E002C0880F991FB1
:101B30006A95E2F7822B80830895FC0180818823D7
:101B400009F448C08230E9F138C08181813019F050
:101B50008230D1F034C0E4E7F1E0A085B1858C910A
:101B6000887F8C93A085B1858C9184608C93A085AF
:101B7000B1858C9182608C930084F185E02D808109
:101B80008E7F808380E00895E4E7F1E0A085B18551
:101B90008C91887F8C93A085B1858C9184608C9387
:101BA000A085B1858C9182608C930084F185E02DB5
:101BB00080818160808380E0089581E0089580E0E5
:101BC00008952CE731E035832483823009F4BDCFBA
:101BD00080E0089584E791E09583848380E0089510
:101BE0000F931F93CF93DF93DC012C91222309F4F1
:101BF0007FC0223009F07AC00CE711E07BC0D80129
:101C0000ED91FC91119780818F7B8083ED91FC9108
:101C10008081877F80830CC0D801ED91FC91119762
:101C200080818F7B8083ED91FC91808188608083AF
:101C30008981882319F0813041F00DC0D801ED91E0
:101C4000FC9180818F77808306C0D801ED91FC9153
:101C50008081806880838A81813099F028F0823089
:101C6000E9F0833041F133C0D801ED91FC91119737
:101C700080818F7E8083ED91FC9180818F7D808338
:101C800026C0D801ED91FC911197808180618083FD
:101C9000ED91FC9180818F7D808319C0D801ED91F9
:101CA000FC91119780818F7E8083ED91FC918081E2
:101CB000806280830CC0D801ED91FC9111978081E6
:101CC00080618083ED91FC91808180628083D80166
:101CD0001496ED91FC9115978C8180831296ED916D
:101CE000FC9113978B81808380E00EC081E00CC053
:101CF00004E711E0EB0121DF8881882309F47FCF1D
:101D0000813009F489CF94CFDF91CF911F910F914A
:101D10000895FC018081882339F0823019F4ECE7C2
:101D2000F1E004C081E00895E4E7F1E00190F08182
:101D3000E02D8081887F808380E00895FC01808190
:101D4000813039F0833019F4EEE5F1E004C081E030
:101D50000895E8E4F1E00280F381E02D8081887F3E
:101D6000808380E00895DC011296EC918E2F90E044
:101D70008730910508F088C0FC01E15BFF4FD0C6B9
:101D8000E4E7F1E0A081B1818C918B7F8C93A081FD
:101D9000B1818C918D7F8C930190F081E02D8081B9
:101DA000816080830895E4E7F1E0A081B1818C91A6
:101DB0008B7F8C93A081B1818C9182608C930190F8
:101DC000F081E02D80818E7F80830895E4E7F1E04B
:101DD000A081B1818C918B7F8C93A081B1818C91FA
:101DE00082608C930190F081E02D808181608083FE
:101DF0000895E4E7F1E0A081B1818C9184608C9337
:101E0000A081B1818C918D7F8C930190F081E02D28
:101E100080818E7F80830895E4E7F1E0A081B18125
:101E20008C9184608C93A081B1818C918D7F8C93F7
:101E30000190F081E02D8081816080830895E4E746
:101E4000F1E0A081B1818C9184608C93A081B181FB
:101E50008C9182608C930190F081E02D80818E7F47
:101E600080830895E4E7F1E0A081B1818C918460E2
:101E70008C93A081B1818C9182608C930190F081D0
:101E8000E02D8081816080830895E0917C01F09154
:101E90007D0120812081DC0112968C91833071F1CB
:101EA00028F4882349F08130C1F008958530B9F1D4
:101EB000863009F445C0089580818B7F8083E4E7F4
:101EC000F1E0A085B1858C918D7F8C930084F185A4
:101ED000E02D808181608083089580818B7F808365
:101EE000E4E7F1E0A085B1858C9182608C93008459
:101EF000F185E02D80818E7F8083089580818B7FA6
:101F00008083E4E7F1E0A085B1858C9182608C93B9
:101F10000084F185E02D8081816080830895808137
:101F200084608083E4E7F1E0A085B1858C918D7FAA
:101F30008C930084F185E02D80818E7F80830895CD
:101F4000808184608083E4E7F1E0A085B1858C9195
:101F50008D7F8C930084F185E02D8081816080836A
:101F60000895FC012081222389F0223059F4ACE746
:101F7000B1E00EC0CF01F7DE80E00895CF0185DF2C
:101F800080E0089581E0089580E00895A4E7B1E03D
:101F9000FC0112960D90BC91A02D83818C938081C1
:101FA000882341F3823051F3EFCFE0914A01F09161
:101FB0004B0120812081DC0112968C91833071F1DC
:101FC00028F4882349F08130C1F008958530B9F1B3
:101FD000863009F445C0089580818B7F8083E8E4D2
:101FE000F1E0A281B3818C918D7F8C930280F3818B
:101FF000E02D808181608083089580818B7F808344
:10200000E8E4F1E0A281B3818C9182608C9302803C
:10201000F381E02D80818E7F8083089580818B7F86
:102020008083E8E4F1E0A281B3818C9182608C939B
:102030000280F381E02D808181608083089580811A
:1020400084608083E8E4F1E0A281B3818C918D7F8C
:102050008C930280F381E02D80818E7F80830895B0
:10206000808184608083E8E4F1E0A281B3818C9177
:102070008D7F8C930280F381E02D8081816080834D
:102080000895E0916001F091610120812081DC01DF
:1020900012968C91833071F128F4882349F08130B5
:1020A000C1F008958530B9F1863009F445C008952E
:1020B00080818B7F8083E8E4F1E0A08DB18D8C91ED
:1020C0008D7F8C93008CF18DE02D808181608083E9
:1020D000089580818B7F8083E8E4F1E0A08DB18D4D
:1020E0008C9182608C93008CF18DE02D80818E7FAD
:1020F0008083089580818B7F8083E8E4F1E0A08D68
:10210000B18D8C9182608C93008CF18DE02D80815B
:10211000816080830895808184608083E8E4F1E0B9
:10212000A08DB18D8C918D7F8C93008CF18DE02DE5
:1021300080818E7F80830895808184608083E8E43D
:10214000F1E0A08DB18D8C918D7F8C93008CF18D01
:10215000E02D8081816080830895FC019081913021
:1021600019F0933029F008C0CF011FDF80E00895F7
:10217000CF0187DF80E0089581E008950895FECFC4
:1021800008950895FECF08950895FECF0895089507
:10219000FECF0895CF92DF92EF92FF920F931F939D
:1021A000CF93DF93FC01C081D0E0009709F4E3C135
:1021B0008C018185882321F0813009F441C07BC0E6
:1021C00081819281A381B481880F991FAA1FBB1FAF
:1021D000880F991FAA1FBB1FBC01CD01660F771F77
:1021E000881F991F660F771F881F991FD6D39B01E1
:1021F000AC0160E074E284E79BE43BD320E030E094
:1022000040E05FE3D1D29DD3FE01EE0FFF1FEC0F44
:10221000FD1FEE0FFF1FEE0FFF1FEC57FE4FA085B7
:10222000B185C72ED82EE92EFF24CC92A285B38586
:102230006C930280F381E02D80818D7F80833BC091
:1022400081819281A381B481880F991FAA1FBB1F2E
:10225000880F991FAA1FBB1FBC01CD01660F771FF6
:10226000881F991F9AD39B01AC0160E074E284E758
:102270009BE4FFD220E030E040E05FE395D261D301
:10228000FE01EE0FFF1FEC0FFD1FEE0FFF1FEE0F05
:10229000FF1FEC57FE4FA085B185C72ED82EE92E23
:1022A000FF24CC92A285B3856C930280F381E02D4C
:1022B000808182608083F8018581823009F445C085
:1022C00028F4882351F0813021F192C0833009F441
:1022D00058C0843009F471C08BC0FE01EE0FFF1F9F
:1022E000EC0FFD1FEE0FFF1FEE0FFF1FEC57FE4F11
:1022F000A481B5818C918B7F8C93A681B7818C91C1
:1023000084608C930680F781E02D808182608083D9
:102310006FC0FE01EE0FFF1FEC0FFD1FEE0FFF1F42
:10232000EE0FFF1FEC57FE4FA481B5818C918B7F80
:102330008C93A681B7818C918B7F8C930680F781DB
:10234000E02D80818D7F808353C0FE01EE0FFF1F43
:10235000EC0FFD1FEE0FFF1FEE0FFF1FEC57FE4FA0
:10236000A481B5818C918B7F8C93A681B7818C9150
:102370008B7F8C930680F781E02D80818260808343
:1023800037C0FE01EE0FFF1FEC0FFD1FEE0FFF1F0A
:10239000EE0FFF1FEC57FE4FA481B5818C918B7F10
:1023A0008C93A681B7818C9184608C930680F78191
:1023B000E02D80818D7F80831BC0FE01EE0FFF1F0B
:1023C000EC0FFD1FEE0FFF1FEE0FFF1FEC57FE4F30
:1023D000A481B5818C9184608C93A681B7818C9106
:1023E00084608C930680F781E02D808182608083F9
:1023F000F8018681882319F0813099F023C0FE010D
:10240000EE0FFF1FEC0FFD1FEE0FFF1FEE0FFF1F64
:10241000EC57FE4F0680F781E02D80818F7E808310
:1024200011C0FE01EE0FFF1FEC0FFD1FEE0FFF1F8F
:10243000EE0FFF1FEC57FE4F0680F781E02D8081E5
:1024400080618083F80187818130D9F018F0823073
:1024500079F144C0FE01EE0FFF1FEC0FFD1FEE0FE0
:10246000FF1FEE0FFF1FEC57FE4FA681B7818C9127
:102470008F7B8C930680F781E02D80818F7D808318
:102480002DC0FE01EE0FFF1FEC0FFD1FEE0FFF1F13
:10249000EE0FFF1FEC57FE4FA681B7818C91806431
:1024A0008C930680F781E02D80818F7D808316C01C
:1024B000FE01EE0FFF1FEC0FFD1FEE0FFF1FEE0FD3
:1024C000FF1FEC57FE4FA681B7818C9180648C93DF
:1024D0000680F781E02D808180628083F80180850D
:1024E0008130B1F018F0823029F147C0CE01880F59
:1024F000991FC80FD91FCC0FDD1FCC0FDD1FCC5784
:10250000DE4FEC81FD8180818061808380E036C078
:10251000CE01880F991FC80FD91FCC0FDD1FCC0F1C
:10252000DD1FCC57DE4FEC81FD8180818860808388
:1025300080E024C09E01220F331FF901EC0FFD1F24
:10254000EE0FFF1FEE0FFF1FEC57FE4F0480F581CB
:10255000E02D808188608083C20FD31FCC0FDD1FE8
:10256000CC0FDD1FCC57DE4FEC81FD818081806177
:10257000808380E003C081E001C080E0DF91CF91E3
:102580001F910F91FF90EF90DF90CF900895AF9241
:10259000BF92CF92DF92EF92FF920F931F93CF9350
:1025A000DF938C01EC01888190E01E8A5F874E8763
:1025B0005B8B4A8B2D81243041F42F81211108C07F
:1025C000E62EF72E60E070E005C0E12CF12C02C091
:1025D000E12CF12C452BA9F1A62EB72ED70120E036
:1025E00030E0BC01660F771F680F791F660F771FF9
:1025F000660F771F6C577E4F6B01D2E0CD0ED11C5A
:10260000E601E881F981908195FFFDCFE114F104A5
:1026100039F4EB01E881F981E5018881808305C007
:10262000EB01E881F9818C9180832F5F3F4FDFEFD1
:10263000AD1ABD0A1296F80142895389241735074D
:10264000F8F280E0DF91CF911F910F91FF90EF9012
:10265000DF90CF90BF90AF900895AF92BF92CF928E
:10266000DF92EF92FF920F931F93CF93DF938C0132
:10267000EC01888190E01E8A598B488B5D8B4C8BD6
:102680002D81243041F42F81211108C0E62EF72E30
:1026900060E070E005C0E12CF12C02C0E12CF12CCF
:1026A000452BD9F1A62EB72ED70140E050E0BC0152
:1026B000660F771F680F791F660F771F660F771FEA
:1026C0006C577E4F6B01D2E0CD0ED11CE601E88144
:1026D000F981908199231CF4908195FFFACFE11440
:1026E000F10439F4EB01E881F9818081F5018083FF
:1026F00008C0EB01E881F981208130E011963C931C
:102700002E934F5F5F4FDFEFAD1ABD0A1296F801AF
:102710008489958948175907C8F280E0DF91CF91E5
:102720001F910F91FF90EF90DF90CF90BF90AF90EF
:102730000895FC01208130E075876487518B408BC0
:10274000558B448BF901EE0FFF1FE20FF31FEE0FC5
:10275000FF1FEE0FFF1FEC57FE4F0480F581E02DA9
:1027600080818068808380E0089550C908950F9328
:102770001F93CF93DF93EC01488959896C857D8540
:1027800004E610E020E030E068DFCE0140D9DF91C0
:10279000CF911F910F91089557D90E9476000E9402
:1027A000780080E090E008955058BB27AA270ED00B
:1027B00048C139D130F03ED120F031F49F3F11F4BF
:1027C0001EF42EC10EF4E095E7FB24C1E92F4AD197
:1027D00080F3BA17620773078407950718F071F43E
:1027E0009EF562C10EF4E0950B2EBA2FA02D0B01C1
:1027F000B90190010C01CA01A0011124FF27591B46
:1028000099F0593F50F4503E68F11A16F040A22F4B
:10281000232F342F4427585FF3CF469537952795BC
:10282000A795F0405395C9F77EF41F16BA0B620BBB
:10283000730B840BBAF09150A1F0FF0FBB1F661F02
:10284000771F881FC2F70EC0BA0F621F731F841F45
:1028500048F4879577956795B795F7959E3F08F06B
:10286000B3CF9395880F08F09927EE0F979587952A
:1028700008950CD0E6C0DED040F0D5D030F021F481
:102880005F3F19F0C7C0511110C1CAC0EBD098F317
:102890009923C9F35523B1F3951B550BBB27AA27E1
:1028A00062177307840738F09F5F5F4F220F331F53
:1028B000441FAA1FA9F333D00E2E3AF0E0E830D01F
:1028C00091505040E695001CCAF729D0FE2F27D022
:1028D000660F771F881FBB1F261737074807AB07F0
:1028E000B0E809F0BB0B802DBF01FF2793585F4F65
:1028F0002AF09E3F510568F08DC0D7C05F3FECF3D2
:10290000983EDCF3869577956795B795F7959F5F29
:10291000C9F7880F911D9695879597F90895E1E07D
:10292000660F771F881FBB1F621773078407BA07DC
:1029300020F0621B730B840BBA0BEE1F88F7E09537
:10294000089598D088F09F5790F0B92F9927B751E4
:10295000A0F0D1F0660F771F881F991F1AF0BA9563
:10296000C9F712C0B13081F09FD0B1E008959CC08A
:10297000672F782F8827B85F39F0B93FCCF3869559
:1029800077956795B395D9F73EF4909580957095B6
:1029900061957F4F8F4F9F4F0895E89409C097FB33
:1029A0003EF490958095709561957F4F8F4F9F4F26
:1029B0009923A9F0F92F96E9BB279395F69587956A
:1029C00077956795B795F111F8CFFAF4BB0F11F42D
:1029D00060FF1BC06F5F7F4F8F4F9F4F16C08823D4
:1029E00011F096E911C0772321F09EE8872F762F0A
:1029F00005C0662371F096E8862F70E060E02AF04B
:102A00009A95660F771F881FDAF7880F9695879536
:102A100097F9089597F99F6780E870E060E008955E
:102A20009FEF80EC089500240A94161617061806E6
:102A30000906089500240A941216130614060506C2
:102A40000895092E0394000C11F4882352F0BB0F53
:102A500040F4BF2B11F460FF04C06F5F7F4F8F4FB6
:102A60009F4F089557FD9058440F551F59F05F3FF1
:102A700071F04795880F97FB991F61F09F3F79F0A0
:102A800087950895121613061406551FF2CF469522
:102A9000F1DF08C0161617061806991FF1CF8695A4
:102AA0007105610508940895E894BB276627772788
:102AB000CB0197F9089597FB072E16F4009406D0E2
:102AC00077FD08D036D007FC05D03EF4909581956F
:102AD0009F4F0895709561957F4F0895A1E21A2E3A
:102AE000AA1BBB1BFD010DC0AA1FBB1FEE1FFF1FB2
:102AF000A217B307E407F50720F0A21BB30BE40B02
:102B0000F50B661F771F881F991F1A9469F7609548
:102B10007095809590959B01AC01BD01CF01089502
:102B2000EE0FFF1F0024001C0BBE0790F691E02D56
:102B30000994AA1BBB1B51E107C0AA1FBB1FA61704
:102B4000B70710F0A61BB70B881F991F5A95A9F756
:0E2B500080959095BC01CD010895F894FFCFBB
:102B5E00060201000106000101000601010100014B
:102B6E0004010100010701010000000101003A000B
:102B7E003B00390037003800360034003500330092
:102B8E00310032003000220023002100610062007B
:102B9E0020006400650063004F004E007A004C0078
:102BAE004D004A004B0048004900460047008B008C
:102BBE008A008C00880089008600870084008500CA
:102BCE008000810053005200510050004500440027
:102BDE00430000002C002B002A00950090002900D5
:0C2BEE009C009B009A009D00980099003C
:00000001FF
