:1000000045C0000060C000005EC000005CC0000091
:100010005AC0000058C0000056C0000054C0000084
:1000200052C0000050C000004EC000004CC0000094
:100030004AC0000048C0000046C0000044C00000A4
:1000400042C0000040C0000041C000003CC00000B1
:1000500065C0000038C0000036C0000034C0000099
:1000600032C0000030C000002EC000002CC00000D4
:100070002AC0000028C000005BC0000024C00000AF
:100080007FC0000020C000001EC0000011241FBE61
:10009000CFEFD0E1DEBFCDBF11E0A0E0B1E0EEE6F2
:1000A000F3E000E00BBF02C007900D92A030B10753
:1000B000D9F721E0A0E0B1E001C01D92AE31B20756
:1000C000E1F72CD152C19CCF0895FFCF1F920F9220
:1000D0000FB60F9211240BB60F922F933F934F93AD
:1000E0005F936F937F938F939F93AF93BF93EF93A0
:1000F000FF9380E0F3D0FF91EF91BF91AF919F917B
:100100008F917F916F915F914F913F912F910F90C0
:100110000BBE0F900FBE0F901F9018951F920F925D
:100120000FB60F9211240F900FBE0F901F901895CD
:100130001F920F920FB60F9211240BB60F922F93AE
:100140003F934F935F936F937F938F939F93AF935F
:10015000BF93EF93FF9381E0C1D0FF91EF91BF91E7
:10016000AF919F918F917F916F915F914F913F914F
:100170002F910F900BBE0F900FBE0F901F901895F0
:100180001F920F920FB60F9211240F900FBE0F9077
:100190001F9018954F925F926F927F92AF92BF928D
:1001A000CF92DF92EF92FF920F931F93CF93DF9343
:1001B00000D000D000D0CDB7DEB79E838D83062F50
:1001C000172F29013A01232B242B252B09F470C06A
:1001D000DC018D919D910D90BC91A02D89839A8316
:1001E000AB83BC83BC01CD016F5F7F4F8F4F9F4FAF
:1001F000ED81FE81208531854285538594D06B0148
:100200007C01ED81FE8184819581A681B781C8162C
:10021000D906EA06FB0609F44BC0A02EB12E00E079
:1002200010E023C0C701B6016F5F7F4F8F4F9F4F14
:10023000AD81BE8118962D913D914D915C911B979A
:1002400072D0BFEFAB1ABB0AC982DA82EB82FC82A2
:10025000ED81FE81C480D580E680F7806C157D0538
:100260008E059F0529F16B017C01AD81BE811C9635
:100270008D919C911D97009739F0F5012081E981BE
:10028000FA81E80FF91F2083AD81BE81CD92DD9206
:10029000ED92FC9213970F5F1F4FC801012E000CC7
:1002A000AA0BBB0B84159505A605B70508F4BACFB4
:1002B00080E026960FB6F894DEBF0FBECDBFDF916B
:1002C000CF911F910F91FF90EF90DF90CF90BF9053
:1002D000AF907F906F905F904F900895882319F0B2
:1002E000813071F008958CB18093000121E030E0FD
:1002F00040E050E060E071E082E091E04BCF089593
:1003000080919C008093010121E030E040E050E0CA
:1003100061E071E080E191E03DCF0895D5DED5DE6A
:1003200080E090E00895A1E21A2EAA1BBB1BFD01FC
:100330000DC0AA1FBB1FEE1FFF1FA217B307E407C4
:10034000F50720F0A21BB30BE40BF50B661F771F1C
:10035000881F991F1A9469F76095709580959095FC
:0E0360009B01AC01BD01CF010895F894FFCFC1
:00000001FF
