:1000000077C0000094C0000092C0000090C00000C3
:100010008EC000008CC000008AC0000088C00000B4
:1000200086C00000C6C100009AC100008EC1000059
:100030006EC1000076C1000060C1000034C1000044
:1000400008C1000074C00000B0C0000070C0000013
:10005000D6C000006CC000006AC0000068C000008C
:100060006AC10000F8C10000D8C10000E0C1000072
:10007000E8C10000C8C100005AC0000058C000001C
:1000800056C0000054C0000052C000009404A904EF
:10009000BE04D304E804FD04120578079307AE07F5
:1000A000C9070D09470980098009E4075008350888
:1000B000FF071A086B088608A108BC08D708F208D1
:1000C0008B09BA09E909180AD40A030B470A760A08
:1000D000A50ABA09E909180AD40A030B470A760ADD
:1000E000A50A8D0BA00BB30BC60BD90BEC0BFF0BAA
:1000F00011241FBECFEFD0E1DEBFCDBF11E0A0E0E5
:10010000B1E0E2E3FCE100E00BBF02C007900D921A
:10011000A839B107D9F721E0A8E9B1E001C01D92E3
:10012000AB3FB207E1F70E94E30D0C94170E68CFC6
:1001300020E030E04FEF50E060E070E080E08CD2F3
:1001400020E030E041E050E060E070E081E084D207
:1001500028E833E14AEF50E060E070E082E07CD2D2
:100160007894089561E070E080E0F6D26AEF70E084
:1001700082E0F2D22FEF89E698E121508040904052
:10018000E1F700C000006FEF70E080E0E5D264EFBF
:1001900071E082E0E1D22FEF89E698E121508040C2
:1001A0009040E1F700C00000DDCF1F920F920FB624
:1001B0000F9211240BB60F922F933F934F935F939F
:1001C0006F937F938F939F93AF93BF93EF93FF931F
:1001D00084EE91E00E94CD0DFF91EF91BF91AF9120
:1001E0009F918F917F916F915F914F913F912F914F
:1001F0000F900BBE0F900FBE0F901F9018951F927F
:100200000F920FB60F9211240BB60F922F933F93BC
:100210004F935F936F937F938F939F93AF93BF930E
:10022000EF93FF9384EE91E00E94CA0DFF91EF914E
:10023000BF91AF919F918F917F916F915F914F91FE
:100240003F912F910F900BBE0F900FBE0F901F90FC
:1002500018951F920F920FB60F9211240BB60F92A2
:100260002F933F934F935F936F937F938F939F93BE
:10027000AF93BF93EF93FF9388EC91E00E944F0DF3
:10028000FF91EF91BF91AF919F918F917F916F916E
:100290005F914F913F912F910F900BBE0F900FBE2A
:1002A0000F901F9018951F920F920FB60F92112466
:1002B0000BB60F922F933F934F935F936F937F9360
:1002C0008F939F93AF93BF93EF93FF9388EC91E04D
:1002D0000E94560DFF91EF91BF91AF919F918F9129
:1002E0007F916F915F914F913F912F910F900BBE36
:1002F0000F900FBE0F901F9018951F920F920FB680
:100300000F9211240F900FBE0F901F9018951F92FF
:100310000F920FB60F9211240F900FBE0F901F90E7
:1003200018951F920F920FB60F9211240F900FBEC7
:100330000F901F9018951F920F920FB60F921124D5
:100340000F900FBE0F901F9018951F920F920FB62F
:100350000F9211240F900FBE0F901F9018951F92AF
:100360000F920FB60F9211240BB60F922F933F935B
:100370004F935F936F937F938F939F93AF93BF93AD
:10038000EF93FF9386ED91E00E94520DFF91EF9164
:10039000BF91AF919F918F917F916F915F914F919D
:1003A0003F912F910F900BBE0F900FBE0F901F909B
:1003B00018951F920F920FB60F9211240BB60F9241
:1003C0002F933F934F935F936F937F938F939F935D
:1003D000AF93BF93EF93FF9386ED91E00E94590D89
:1003E000FF91EF91BF91AF919F918F917F916F910D
:1003F0005F914F913F912F910F900BBE0F900FBEC9
:100400000F901F9018951F920F920FB60F92112404
:100410000F900FBE0F901F9018951F920F920FB65E
:100420000F9211240F900FBE0F901F9018951F92DE
:100430000F920FB60F9211240F900FBE0F901F90C6
:1004400018951F920F920FB60F9211240F900FBEA6
:100450000F901F9018951F920F920FB60F921124B4
:100460000F900FBE0F901F90189508954F925F92B6
:100470006F927F92AF92BF92CF92DF92EF92FF92F4
:100480000F931F93CF93DF9300D000D000D0CDB750
:10049000DEB79E838D83062F172F29013A01232B68
:1004A000242B252B09F472C0DC018D919D910D90B8
:1004B000BC91A02D89839A83AB83BC83BC01CD0101
:1004C0006F5F7F4F8F4F9F4FED81FE81208531857C
:1004D000428553850E94EC0D6B017C01ED81FE810C
:1004E00084819581A681B781C816D906EA06FB06E4
:1004F00009F44CC0A02EB12E00E010E024C0C701CA
:10050000B6016F5F7F4F8F4F9F4FAD81BE811896B1
:100510002D913D914D915C911B970E94EC0DBFEF89
:10052000AB1ABB0AC982DA82EB82FC82ED81FE81C2
:10053000C480D580E680F7806C157D058E059F050B
:1005400029F16B017C01AD81BE811C968D919C913E
:100550001D97009739F0F5012081E981FA81E80FB4
:10056000F91F2083AD81BE81CD92DD92ED92FC9288
:1005700013970F5F1F4FC801012E000CAA0BBB0B76
:1005800084159505A605B70508F4B9CF80E0269631
:100590000FB6F894DEBF0FBECDBFDF91CF911F9194
:1005A0000F91FF90EF90DF90CF90BF90AF907F9032
:1005B0006F905F904F900895CF93DF9300D0CDB7A9
:1005C000DEB71A8219828530B8F4613011F491E0F7
:1005D0009A8390E0FC01EE0FFF1FEE0FFF1FE80F64
:1005E000F91FE050FF4F81818983BE016F5F7F4F0C
:1005F000808133D181E001C080E00F900F90DF91C6
:10060000CF9108950F931F93CF9300E011E0C0E0C6
:10061000F80162818C2FD0DF0B5F1F4FCF5FC53099
:10062000B9F781E0CF911F910F910895853068F45B
:1006300090E0FC01EE0FFF1FEE0FFF1FE80FF91F08
:10064000E050FF4F6181808143C10895E6ECF1E005
:100650001082118281E00895813061F138F082309A
:1006600009F44AC0833009F469C06DC0E8ECF1E0D8
:10067000108285E08283118282E08383148284E089
:1006800085831682708767835287418734872387E3
:10069000CF010E946D0B811158C081E08093C6018B
:1006A00088EC91E00E947A0B91E0882309F452C013
:1006B00090E050C0E6EDF1E082E0808395E0928327
:1006C00011828383148284E0858316827087678316
:1006D0005287418734872387CF01FFD7811137C0E5
:1006E00081E08093C70186ED91E00E947A0B91E052
:1006F000882381F190E02EC0E8EBF1E081E0808377
:1007000093E0928311829CE09383148294E095831A
:100710008683708767835287418734872387CF0119
:10072000DCD7811116C081E08093C80188EB91E08D
:10073000E1D791E0882371F090E00CC083E08093D2
:10074000AA0190E007C090E005C090E003C090E0EF
:1007500001C090E0892F0895AB01813079F028F035
:100760008230A9F08330E1F024C0E8ECF1E0238589
:1007700034856781708580E06FCF0895E6EDF1E004
:10078000238534856781708581E066CF0895E8EB25
:10079000F1E0238534856781708582E05DCF08951F
:1007A000EAEAF1E0238534856781708583E054CFE0
:1007B000089580E00895CF93DF93EC0180919A0132
:1007C00090919B018A3F910531F480E02FDF1092D8
:1007D0009B0110929A0180919A0190919B01019640
:1007E00090939B0180939A01CE0184D7DF91CF91A2
:1007F0000895CF93DF93EC01809198019091990136
:10080000843F914031F481E011DF10929901109200
:100810009801809198019091990101969093990186
:1008200080939801CE0166D7DF91CF91089581E042
:1008300008950895FC012081211109C02089318982
:1008400040E050E0648575858CE991E00FCE089515
:100850000CDED8DEECDFFACE089590E0DB011196D5
:100860002C911197211119C0FC01EE0FFF1FE80F09
:10087000F91FEE0FFF1FE75EFE4F0190F081E02DA4
:10088000208181E090E00C9002C0880F991F0A94AB
:10089000E2F780958223808308952130C1F4FC0122
:1008A000EE0FFF1FE80FF91FEE0FFF1FE75EFE4F71
:1008B0000190F081E02D208181E090E0DB010C903F
:1008C00002C0880F991F0A94E2F7822B8083089553
:1008D00090E0FC01EE0FFF1FE80FF91FEE0FFF1F66
:1008E000E75EFE4F0280F381E02D208181E090E001
:1008F00002C0880F991F6A95E2F7822780830895C6
:10090000CF93DF93DC018C918111A1C01296EC9101
:1009100012974E2F50E04730510508F046C1FA01BA
:10092000EA5BFF4F0C940E0EEFE6F1E0C081D1813F
:1009300088818B7F8883C081D18188818D7F8883E6
:100940000190F081E02D808181608083EFE6F1E00D
:1009500034C1EFE6F1E0C081D18188818B7F88834B
:10096000C081D1818881826088830190F081E02DEF
:1009700080818E7F8083EFE6F1E01FC1EFE6F1E03A
:10098000C081D18188818B7F8883C081D18188811A
:10099000826088830190F081E02D80818160808376
:1009A000EFE6F1E00AC1EFE6F1E0C081D181888194
:1009B00084608883C081D18188818D7F8883019004
:1009C000F081E02D80818E7F8083EFE6F1E0F5C03D
:1009D000EFE6F1E0C081D181888184608883C081A5
:1009E000D18188818D7F88830190F081E02D808185
:1009F00081608083EFE6F1E0E0C0EFE6F1E0C081E6
:100A0000D181888184608883C081D181888182601E
:100A100088830190F081E02D80818E7F8083EFE6D6
:100A2000F1E0CBC0EFE6F1E0C081D1818881846044
:100A30008883C081D1818881826088830190F08120
:100A4000E02D808181608083EFE6F1E0B6C08230E6
:100A500009F085C112968C911297833091F128F498
:100A6000882349F08130D1F064C08530E9F18630C7
:100A700009F44DC05EC0EFE6F1E0C085D185888104
:100A80008B7F8883C085D18588818D7F8883008412
:100A9000F185E02D8081816080834BC0EFE6F1E03D
:100AA000C085D18588818B7F8883C085D1858881E9
:100AB000826088830084F185E02D80818E7F808331
:100AC00038C0EFE6F1E0C085D18588818B7F8883CF
:100AD000C085D1858881826088830084F185E02D7E
:100AE00080818160808325C0EFE6F1E0C085D185FB
:100AF000888184608883C085D18588818D7F888343
:100B00000084F185E02D80818E7F808312C0EFE626
:100B1000F1E0C085D185888184608883C085D185D6
:100B200088818D7F88830084F185E02D80818160BC
:100B3000808311968C911197813019F08230D9F011
:100B400037C0EFE6F1E0C085D1858881887F888352
:100B5000C085D185888184608883C085D18588815E
:100B6000826088830084F185E02D80818E7F808380
:100B7000E7E7F1E022C0EFE6F1E0C085D1858881AA
:100B8000887F8883C085D185888184608883C0857B
:100B9000D1858881826088830084F185E02D808101
:100BA00081608083E7E7F1E008C0EFE6F1E002C092
:100BB000E7E7F1E0309709F4D4C013968C911397CE
:100BC000823071F128F4882359F08130C9F067C070
:100BD000843009F445C0A0F1853009F451C05FC0EC
:100BE000C081D18188818F778883C081D1818881BC
:100BF0008F7B8883C081D1818881877F88834FC024
:100C0000C081D18188818F778883C081D18188819B
:100C10008F7B8883C081D1818881886088833FC031
:100C2000C081D18188818F778883C081D18188817B
:100C300080648883C081D1818881886088832FC047
:100C4000C081D18188818F778883C081D18188815B
:100C500080648883C081D1818881877F88831FC019
:100C6000C081D181888180688883C081D181888159
:100C70008F7B8883C081D1818881877F88830FC0E3
:100C8000C081D181888180688883C081D181888139
:100C90008F7B8883C081D1818881877F88831596E7
:100CA0008C911597823011F128F4882349F0813016
:100CB00091F047C0843081F120F18530C1F141C00D
:100CC000C081D18188818F7E8883C081D1818881D4
:100CD0008F7D888336C0C081D1818881806188837F
:100CE000C081D18188818F7D88832BC0C081D181D3
:100CF00088818F7E8883C081D1818881806288834A
:100D000020C0C081D181888180618883C081D181E8
:100D100088818062888315C0C081D18188818F7E5F
:100D20008883C081D1818881806288830AC0C08124
:100D3000D181888180618883C081D18188818062EE
:100D40008883C281D38117968C91179788830480FA
:100D5000F581E02D19968C91808380E003C081E0BD
:100D600001C081E0DF91CF910895CF93DF93EC0133
:100D70008881813009F48BC4833009F48BC481E00D
:100D8000A9C41296ED91FC91139780818B7F80838B
:100D90001296ED91FC91139780818D7F808312963E
:100DA000ED91FC91139780818160808357C01296EA
:100DB000ED91FC91139780818B7F80831296ED914A
:100DC000FC9113978081826080831296ED91FC9153
:100DD000139780818E7F808341C01296ED91FC91A4
:100DE000139780818B7F80831296ED91FC911397EE
:100DF0008081826080831296ED91FC9113978081AF
:100E0000816080832BC01296ED91FC9113978081B5
:100E1000846080831296ED91FC91139780818D7F81
:100E200080831296ED91FC91139780818E7F808351
:100E300015C01296ED91FC91139780818460808398
:100E40001296ED91FC91139780818D7F808312968D
:100E5000ED91FC911397808181608083898181303D
:100E600019F08230F1F039C01296ED91FC91139790
:100E70008081887F80831296ED91FC911397808109
:100E8000846080831296ED91FC911397808182603B
:100E900080831296ED91FC91139780818E7F8083E1
:100EA0001CC01296ED91FC9113978081887F8083FE
:100EB0001296ED91FC911397808184608083129645
:100EC000ED91FC9113978081826080831296ED9161
:100ED000FC911397808181608083EB814E2F50E0DD
:100EE0004331510508F00CC2FA01E35BFF4F96C68F
:100EF000ED91FC91119780818E7F8083ED91FC9123
:100F0000119780818D7F80831296ED91FC911397CC
:100F10008081877F80831296ED91FC911397808169
:100F20008F7E8083EDC1ED91FC91119780818E7F42
:100F30008083ED91FC91119780818D7F8083129643
:100F4000ED91FC9113978081886080831296ED91DA
:100F5000FC91139780818F7E8083D2C1ED91FC91AB
:100F60001197808181608083ED91FC911197808140
:100F7000826080831296ED91FC9113978081886046
:100F800080831296ED91FC9113978081806180831C
:100F9000B7C1ED91FC911197808181608083ED91C3
:100FA000FC9111978081826080831296ED91FC9173
:100FB00013978081877F80831296ED91FC91139720
:100FC0008081806180839CC1ED91FC91119780812B
:100FD00081608083ED91FC91119780818D7F80836A
:100FE0001296ED91FC9113978081877F80831296F2
:100FF000ED91FC91139780818061808381C1ED9197
:10100000FC91119780818E7F8083ED91FC911197E7
:1010100080818D7F80831296ED91FC911397808162
:10102000886080831296ED91FC9113978081806196
:10103000808366C1ED91FC91119780818E7F8083C2
:10104000ED91FC9111978081826080831296ED91E1
:10105000FC9113978081886080831296ED91FC91BA
:1010600013978081806180834BC1ED91FC91119732
:1010700080818E7F8083ED91FC91119780818260C9
:1010800080831296ED91FC9113978081877F8083F6
:101090001296ED91FC91139780818061808330C11D
:1010A000ED91FC91119780818E7F8083ED91FC9171
:1010B000119780818D7F80831296ED91FC9113971B
:1010C0008081877F80831296ED91FC9113978081B8
:1010D0008061808315C1ED91FC91119780818160C1
:1010E0008083ED91FC91119780818D7F8083129692
:1010F000ED91FC9113978081886080831296ED9129
:10110000FC91139780818F7E8083FAC0ED91FC91D2
:10111000119780818E7F8083ED91FC911197808162
:10112000826080831296ED91FC9113978081886094
:1011300080831296ED91FC91139780818F7E80833E
:10114000DFC0ED91FC911197808181608083ED91EA
:10115000FC9111978081826080831296ED91FC91C1
:1011600013978081886080831296ED91FC9113978C
:1011700080818F7E8083C4C0ED91FC911197808126
:1011800081608083ED91FC91119780818D7F8083B8
:101190001296ED91FC9113978081877F8083129640
:1011A000ED91FC91139780818F7E8083A9C0ED9192
:1011B000FC91119780818E7F8083ED91FC91119736
:1011C0008081826080831296ED91FC9113978081DB
:1011D000877F80831296ED91FC91139780818F7E9B
:1011E00080838EC0ED91FC91119780818160808316
:1011F000ED91FC9111978081826080831296ED9130
:10120000FC9113978081877F80831296ED91FC91EA
:10121000139780818F7E808373C0ED91FC9111972D
:1012200080818E7F8083ED91FC91119780818D7FED
:1012300080831296ED91FC9113978081877F808344
:101240001296ED91FC91139780818F7E80838E8121
:10125000813041F41496ED91FC911597808180685E
:1012600080834EC0823041F41496ED91FC91159725
:1012700080818064808344C0833009F020C214964A
:10128000ED91FC91159780818062808339C0ED914A
:10129000FC91119780818E7F8083ED91FC91119755
:1012A00080818D7F80831296ED91FC9113978081D0
:1012B000886080831296ED91FC91139780818F7ED8
:1012C00080838E81813041F41496ED91FC911597C5
:1012D00080818068808314C0823041F41496ED913F
:1012E000FC9115978081806480830AC0833009F067
:1012F000E6C11496ED91FC91159780818062808300
:10130000ED814E2F50E04930510508F0AAC1FA0195
:10131000E05AFF4F83C48E81813069F4ED91FC91D6
:10132000119780818F7B8083ED91FC9180818F77F5
:10133000808380E0CFC1823069F4ED91FC911197F8
:1013400080818F7E8083ED91FC9180818F7D808371
:1013500080E0C0C1833009F086C1ED91FC91119706
:1013600080818B7F8083ED91FC918081877F80835A
:1013700080E0B0C18E81813069F4ED91FC911197CC
:10138000808180648083ED91FC9180818F77808360
:1013900080E0A0C1823069F4ED91FC9111978081C9
:1013A00080618083ED91FC9180818F7D808380E0DE
:1013B00091C1833009F059C1ED91FC911197808161
:1013C00084608083ED91FC918081877F808380E0C1
:1013D00081C18E81813069F4ED91FC9111978081FA
:1013E0008F7B8083ED91FC9180818068808380E099
:1013F00071C1823069F4ED91FC91119780818F7EEB
:101400008083ED91FC9180818062808380E062C165
:10141000833009F02CC1ED91FC91119780818B7F75
:101420008083ED91FC9180818860808380E052C14F
:101430008E81813069F4ED91FC91119780818064F7
:101440008083ED91FC9180818068808380E042C13F
:10145000823069F4ED91FC911197808180618083E5
:10146000ED91FC9180818062808380E033C1833084
:1014700009F0FFC0ED91FC91119780818460808319
:10148000ED91FC9180818860808380E023C18E8112
:10149000813069F4ED91FC911197808180648083A3
:1014A000ED91FC9180818F77808380E013C1823041
:1014B00069F4ED91FC911197808180618083ED91B9
:1014C000FC9180818F7D808380E004C1833009F0AE
:1014D000D2C0ED91FC911197808184608083ED9161
:1014E000FC918081877F808380E0F4C08E81813091
:1014F00069F4ED91FC911197808180648083ED9176
:10150000FC9180818F77808380E0E4C0823069F431
:10151000ED91FC911197808180618083ED91FC9128
:1015200080818F7D808380E0D5C0833009F0A5C0A5
:10153000ED91FC911197808184608083ED91FC9105
:101540008081877F808380E0C5C08E81813069F48F
:10155000ED91FC911197808180648083ED91FC91E5
:1015600080818F77808380E0B5C0823069F4ED910F
:10157000FC911197808180618083ED91FC91808145
:101580008F7D808380E0A6C0833009F078C0ED9124
:10159000FC911197808184608083ED91FC91808122
:1015A000877F808380E096C08E81813069F4ED91E1
:1015B000FC91119780818F7B8083ED91FC918081DC
:1015C0008068808380E086C0823069F4ED91FC9170
:1015D000119780818F7E8083ED91FC918081806264
:1015E000808380E077C0833009F04BC0ED91FC919F
:1015F000119780818B7F8083ED91FC918081886041
:10160000808380E067C08E81813069F4ED91FC9128
:101610001197808180648083ED91FC918081806846
:10162000808380E057C0823069F4ED91FC9111977E
:10163000808180618083ED91FC91808180628083D4
:1016400080E048C08330F9F4ED91FC9111978081DE
:1016500084608083ED91FC9180818860808380E04C
:1016600039C080E037C080E035C080E033C080E022
:1016700031C080E02FC080E02DC080E02BC080E032
:1016800029C080E027C080E025C080E023C0A3E41B
:10169000B1E002C0A9E5B1E08A81833009F49DCBB5
:1016A00038F4882309F46DCB813009F480CBD6CB94
:1016B000853009F4A8CB863009F4BBCBCFCBED81C4
:1016C0004E2F50E0FA013197E830F105F0F6E75976
:1016D000FF4FA4C2DF91CF910895FC0190819D7FBF
:1016E00019F4CF010DD904C0913011F4CF013DDBC5
:1016F00080E00895CF93DF93DC018C918111A0C02D
:101700001296EC9112974E2F50E04730510508F099
:1017100088C0FA01EF58FF4F81C2EFE6F1E0C081C7
:10172000D18188818B7F8883C081D18188818D7FA1
:1017300088830190F081E02D80818160808371C079
:10174000EFE6F1E0C081D18188818B7F8883C08101
:10175000D1818881826088830190F081E02D808131
:101760008E7F80835EC0EFE6F1E0C081D181888109
:101770008B7F8883C081D18188818260888301903A
:10178000F081E02D8081816080834BC0EFE6F1E045
:10179000C081D181888184608883C081D181888122
:1017A0008D7F88830190F081E02D80818E7F808302
:1017B00038C0EFE6F1E0C081D18188818460888300
:1017C000C081D18188818D7F88830190F081E02D57
:1017D00080818160808325C0EFE6F1E0C081D18106
:1017E000888184608883C081D18188818260888378
:1017F0000190F081E02D80818E7F808312C0EFE622
:10180000F1E0C081D181888184608883C081D181E9
:101810008881826088830190F081E02D80818160E1
:101820008083EFE6F1E0C281D38117968C91179700
:1018300088830480F581E02D19968C9180832BC1DB
:10184000823009F07EC012968C911297833091F10C
:1018500028F4882349F08130D1F064C08530E9F163
:10186000863009F44DC05EC0EFE6F1E0C085D18559
:1018700088818B7F8883C085D18588818D7F88838F
:101880000084F185E02D8081816080834BC0EFE68C
:10189000F1E0C085D18588818B7F8883C085D18523
:1018A0008881826088830084F185E02D80818E7F2D
:1018B000808338C0EFE6F1E0C085D18588818B7FD9
:1018C0008883C085D1858881826088830084F18582
:1018D000E02D80818160808325C0EFE6F1E0C08546
:1018E000D185888184608883C085D18588818D7FFA
:1018F00088830084F185E02D80818E7F808312C0F3
:10190000EFE6F1E0C085D185888184608883C08559
:10191000D18588818D7F88830084F185E02D808149
:1019200081608083EFE6F1E0C285D38517968C91C4
:10193000179788830484F585E02D19968C91808310
:10194000AAC0813009F48DC0833009F0A4C08CC0D6
:10195000C281D38188818B7F8883C281D381888132
:101960008D7F8883C281D3818881816088833FC0D5
:10197000C281D38188818B7F8883C281D381888112
:1019800082608883C281D38188818E7F88832FC0C3
:10199000C281D38188818B7F8883C281D3818881F2
:1019A00082608883C281D3818881816088831FC0DF
:1019B000C281D381888184608883C281D3818881F8
:1019C0008D7F8883C281D38188818E7F88830FC079
:1019D000C281D381888184608883C281D3818881D8
:1019E0008D7F8883C281D381888181608883C0850F
:1019F000D18518968C9118978883C681D7811796C0
:101A00008C9117978883C489D5891C968C911C97D3
:101A10008883C289D3891B968C911B9788831696DD
:101A20008C911697813019F0823071F034C0C485E2
:101A3000D5851A968C911A9788830284F385E02DB8
:101A400019968C91808327C0C089D1891A968C9170
:101A50001A9788830684F785E02D19968C918083E8
:101A60001AC0E3E4F1E002C0E9E5F1E012968C91DE
:101A70001297833009F48CCF38F4882309F468CFA7
:101A8000813009F475CFB3CF853009F491CF86301A
:101A900009F49ECFACCF80E0DF91CF9108950C94F4
:101AA000DB0308950C94F90308950895FECF08957B
:101AB0000895FECF0895AF92BF92CF92DF92EF923A
:101AC000FF920F931F93CF93DF938C01EC018881DA
:101AD00090E01E8A598B488B5D8B4C8B2D81243076
:101AE00041F42F81211108C0E62EF72E60E070E04E
:101AF00005C0E12CF12C02C0E12CF12CF801228967
:101B00003389232BD9F1A62EB72ED70140E050E020
:101B1000BC01660F771F680F791F660F771F660F6E
:101B2000771F61587E4F6B01F2E0CF0ED11CE601AA
:101B3000E881F981908199231CF0908195FFFACF7B
:101B4000E114F10439F4EB01E881F9818081F501B8
:101B5000808308C0EB01E881F981208130E0119693
:101B60003C932E934F5F5F4FDFEFAD1ABD0A129685
:101B7000F8018289938948175907C8F280E0DF91FC
:101B8000CF911F910F91FF90EF90DF90CF90BF907A
:101B9000AF9008950C94190408950F931F93CF9359
:101BA000DF93EC01488959896C857D8504E610E056
:101BB00020E030E080DFCE010E941A04DF91CF9157
:101BC0001F910F9108950E9428040E9498000E947E
:101BD000B20080E090E00895A1E21A2EAA1BBB1B80
:101BE000FD010DC0AA1FBB1FEE1FFF1FA217B307E9
:101BF000E407F50720F0A21BB30BE40BF50B661FFF
:101C0000771F881F991F1A9469F7609570958095C2
:101C100090959B01AC01BD01CF010895EE0FFF1F10
:101C20000024001C0BBE0790F691E02D0994F89457
:021C3000FFCFE4
:101C32000000010100000101010001040101000195
:101C42000701010001050101003A003B003900379C
:101C520000380036003400350033003100320030E5
:101C62000022002300210061006200200064006560
:101C72000063004F004E007A004C004D004A004BBA
:101C82000048004900460047008B008A008C00880B
:101C9200008900860087008400850080008100534F
:101CA2000052005100500045004400430000002C47
:101CB200002B002A009500900029009C009B009AAE
:081CC200009D0098009900004C
:00000001FF
