S011000041544D4547415F66772E7372656328
S11300004EC0000069C0000067C0000065C0000069
S113001063C0000061C000005FC000005DC000005C
S11300205BC0000084C1000059C100004DC1000044
S11300302DC1000035C100001FC10000F6C0000042
S11300404BC0000049C000004CC0000045C0000087
S113005071C0000041C000003FC000003DC000006E
S113006029C10000B5C1000095C100009DC1000078
S1130070A5C1000085C1000086C000002DC000009D
S1130080ABC0000029C0000027C000000A0312030F
S11300901A031E0322033303370347035B031124AC
S11300A01FBECFEFD0E1DEBFCDBF11E0A0E0B1E0D5
S11300B0ECEAF9E000E00BBF02C007900D92A23613
S11300C0B107D9F725E0A2E6B1E001C01D92A4353D
S11300D0B207E1F738D468C493CF7894089561D215
S11300E0FECF1F920F920FB60F9211240BB60F92F0
S11300F02F933F934F935F936F937F938F939F932C
S1130100AF93BF93EF93FF9382E295E007D4FF91FF
S1130110EF91BF91AF919F918F917F916F915F917B
S11301204F913F912F910F900BBE0F900FBE0F90E8
S11301301F9018951F920F920FB60F9211240BB6B1
S11301400F922F933F934F935F936F937F938F936C
S11301509F93AF93BF93EF93FF9382E295E0DCD339
S1130160FF91EF91BF91AF919F918F917F916F918B
S11301705F914F913F912F910F900BBE0F900FBE47
S11301800F901F9018951F920F920FB60F92112483
S11301900BB60F922F933F934F935F936F937F937D
S11301A08F939F93AF93BF93EF93FF9389E395E06E
S11301B0B5D3FF91EF91BF91AF919F918F917F91B3
S11301C06F915F914F913F912F910F900BBE0F90C4
S11301D00FBE0F901F9018951F920F920FB60F929B
S11301E011240BB60F922F933F934F935F936F930A
S11301F07F938F939F93AF93BF93EF93FF9389E381
S113020095E08AD3FF91EF91BF91AF919F918F9128
S11302107F916F915F914F913F912F910F900BBE02
S11302200F900FBE0F901F9018951F920F920FB64C
S11302300F9211240BB60F922F933F934F935F931A
S11302406F937F938F939F93AF93BF93EF93FF939A
S11302509FD2FF91EF91BF91AF919F918F917F9129
S11302606F915F914F913F912F910F900BBE0F9023
S11302700FBE0F901F9018951F920F920FB60F92FA
S113028011240F900FBE0F901F9018951F920F927C
S11302900FB60F9211240F900FBE0F901F90189558
S11302A01F920F920FB60F9211240F900FBE0F9052
S11302B01F9018951F920F920FB60F9211240F9052
S11302C00FBE0F901F9018951F920F920FB60F92AA
S11302D011240F900FBE0F901F9018951F920F922C
S11302E00FB60F9211240BB60F922F933F934F9397
S11302F05F936F937F938F939F93AF93BF93EF938A
S1130300FF9386EF91E097D2FF91EF91BF91AF9168
S11303109F918F917F916F915F914F913F912F9119
S11303200F900BBE0F900FBE0F901F9018951F9249
S11303300F920FB60F9211240BB60F922F933F9387
S11303404F935F936F937F938F939F93AF93BF93D9
S1130350EF93FF9386EF91E071D2FF91EF91BF91FC
S1130360AF919F918F917F916F915F914F913F9149
S11303702F910F900BBE0F900FBE0F901F901895EA
S11303801F920F920FB60F9211240F900FBE0F9071
S11303901F9018951F920F920FB60F9211240F9071
S11303A00FBE0F901F9018951F920F920FB60F92C9
S11303B011240F900FBE0F901F9018951F920F924B
S11303C00FB60F9211240F900FBE0F901F90189527
S11303D01F920F920FB60F9211240F900FBE0F9021
S11303E01F90189508954F925F926F927F92AF92EB
S11303F0BF92CF92DF92EF92FF920F931F93CF930E
S1130400DF9300D000D000D0CDB7DEB79E838D83BC
S1130410062F172F29013A01232B242B252B09F40E
S113042070C0DC018D919D910D90BC91A02D8983AC
S11304309A83AB83BC83BC01CD016F5F7F4F8F4F29
S11304409F4FED81FE81208531854285538581D280
S11304506B017C01ED81FE8184819581A681B78148
S1130460C816D906EA06FB0609F44BC0A02EB12E25
S113047000E010E023C0C701B6016F5F7F4F8F4FCC
S11304809F4FAD81BE8118962D913D914D915C9108
S11304901B975FD2BFEFAB1ABB0AC982DA82EB8229
S11304A0FC82ED81FE81C480D580E680F7806C15E6
S11304B07D058E059F0529F16B017C01AD81BE810F
S11304C01C968D919C911D97009739F0F501208120
S11304D0E981FA81E80FF91F2083AD81BE81CD92B5
S11304E0DD92ED92FC9213970F5F1F4FC801012E0E
S11304F0000CAA0BBB0B84159505A605B70508F4DB
S1130500BACF80E026960FB6F894DEBF0FBECDBFFB
S1130510DF91CF911F910F91FF90EF90DF90CF90DB
S1130520BF90AF907F906F905F904F900895CF935E
S1130530DF9300D0CDB7DEB71A8219828630B8F4C3
S1130540613011F491E09A8390E0FC01EE0FFF1FFB
S1130550EE0FFF1FE80FF91FE050FF4F81818983E1
S1130560BE016F5F7F4F80812AD181E001C080E0AE
S11305700F900F90DF91CF9108950F931F93CF9316
S113058000E011E0C0E0F80162818C2FD0DF0B5F46
S11305901F4FCF5FC630B9F781E0CF911F910F9104
S11305A0089582E092E00ED0882359F06091100201
S11305B066233CF0409111025091120282E092E0D5
S11305C0B5C008951F93CF93DF93FC0110811123CD
S11305D009F4A7C0EC01E95EFD4F0190F081E02D24
S11305E089810995672B682B692B09F495C0FE0155
S11305F0E55EFD4F0190F081E02D89810995EE8142
S11306004E2F50E04930510508F07EC0FA01EA5BF4
S1130610FF4FC1C18F3F21F48A8B81E08E8380C05C
S11306201E827EC08F3F21F48B8B82E08E8378C044
S11306301E8276C08C8B83E08E8372C08D8B84E0A7
S11306408E836EC08E8B2C899D89920F90959C878A
S1130650891303C085E08E8301C01E82822F90E03F
S11306609B878A875DC08F8B86E08E8359C0888F75
S113067087E08F83CE014996988B8F878A859B85E7
S1130680892B19F087E08E834BC01E8240C02F81D6
S113069091E0920F9F83FE01E20FF11D828B892F5F
S11306A090E02A853B85295F3F4F82179307C0F16D
S11306B088E08E8335C09F81FE01E90FF11D828B96
S11306C02A853B852115310591F0FE017996275E37
S11306D03F4F2C0F3D1F40E050E0BA019191490F6C
S11306E0511D611D711DE217F307C1F703C040E0FE
S11306F050E0BA014095498B841303C01E8281E007
S113070001C080E01F8201C080E0882339F0888D19
S11307108D878F898E8705C010E003C010E001C06B
S113072010E0812FDF91CF911F91089566236CF023
S1130730FC0170E0660F771FE60FF71FE15EFD4FC7
S11307400190F081E02DCA010995089581E0089592
S11307500895FC018081882319F0813059F00895AF
S11307602089318940E050E06485758582E691E016
S11307703ACE08952089318940E050E0648575853A
S113078080E791E030CE08952DDEF7DEDFCF0895C7
S11307908091500590915105A0915205B091530557
S11307A020911E01820F911DA11DB11D8093500542
S11307B090935105A0935205B0935305089590E08A
S11307C0DB0111962C911197211119C0FC01EE0F38
S11307D0FF1FE80FF91FEE0FFF1FE15EFE4F0190B0
S11307E0F081E02D208181E090E00C9002C0880F20
S11307F0991F0A94E2F7809582238083089521301B
S1130800C1F4FC01EE0FFF1FE80FF91FEE0FFF1FED
S1130810E15EFE4F0190F081E02D208181E090E0C7
S1130820DB010C9002C0880F991F0A94E2F7822B17
S1130830808308950895FECF08950895FECF089506
S1130840AF92BF92CF92DF92EF92FF920F931F93DA
S1130850CF93DF938C01EC01888190E01E8A598B41
S1130860488B5D8B4C8B2D81243041F42F812111D9
S113087008C0E62EF72E60E070E005C0E12CF12CF4
S113088002C0E12CF12C452BD9F1A62EB72ED701AD
S113089040E050E0BC01660F771F680F791F660FB8
S11308A0771F660F771F675B7E4F6B01D2E0CD0E1B
S11308B0D11CE601E881F981908199231CF490818F
S11308C095FFFACFE114F10439F4EB01E881F981E1
S11308D08081F501808308C0EB01E881F9812081E2
S11308E030E011963C932E934F5F5F4FDFEFAD1ACC
S11308F0BD0A1296F8018489958948175907C8F2E8
S113090080E0DF91CF911F910F91FF90EF90DF90E6
S1130910CF90BF90AF9008951BCF08950F931F936E
S1130920CF93DF93EC01488959896C857D8504E672
S113093010E020E030E084DFCE010BDFDF91CF91C7
S11309401F910F91089520DFC8DBC9DB80E090E0A0
S11309500895A1E21A2EAA1BBB1BFD010DC0AA1FFC
S1130960BB1FEE1FFF1FA217B307E407F50720F014
S1130970A21BB30BE40BF50B661F771F881F991F8F
S11309801A9469F760957095809590959B01AC01D8
S1130990BD01CF010895EE0FFF1F0024001C0BBE04
S10F09A00790F691E02D0994F894FFCF25
S11309AC060201000106000101000601010100011B
S11309BC0401010001070101000000010100013ADA
S11309CC003B003900370038003600340035003362
S11309DC003100320030002200230021006100624B
S11309EC0020006400650063002C002B002A009595
S11309FC00900029009C009B009A009D009800998F
S1050A0C0000E4
S9030000FC
